:1000000063EF00F00000000000EF00F000000000CF
:0A0010000000000000000000F3D71C
:0E001C00ACB202D00000FCD740C1ADFF120014
:10002A0001013F6B3CC1E9FF3DC1EAFFEECF3EF162
:10003A003E51000A0EE03EC140F1EBDF01013F2BC9
:10004A003F513C25E96E000E3D21EA6EEECF3EF1AE
:04005A00EFD71200CA
:10005E001C0E0101386F000E396F400E3A6F010E03
:10006E003B6FFF0E2C6FFF0E2D6F000E2E6F000ECE
:10007E002F6FFF0E306FFF0E316F000E326F000EBE
:10008E00336FFF0E346FFF0E356F000E366F000E9E
:10009E00376FAC8A900EAB6E948E949C9EAA03D052
:0800AE00AECF00F0FBD71200F9
:1000B6000900F5CFE6FF0006FBE10106F9E11200B3
:1000C6003CEC01F0B886B06A670EAF6EAC84C4DF54
:1000D600820E0C6EDD0E0D6E0D2EFED70C2EFCD78D
:1000E60000000000330E0B6EBB0E0C6EDF0E0D6EA5
:1000F6000D2EFED70C2EFCD70B2EFAD700000000D3
:100106008B0E3C6F000E3D6F8DDF330E0B6EBB0EFC
:100116000C6EDF0E0D6E0D2EFED70C2EFCD70B2EA1
:10012600FAD700000000150E3C6F000E3D6F7ADF17
:10013600330E0B6EBB0E0C6EDF0E0D6E0D2EFED744
:100146000C2EFCD70B2EFAD700000000FB0E3C6FDE
:0A015600000E3D6F67DFC6D7FFD72C
:1002780010EE15F0170E006E020E016E600EF66E8F
:0E028800010EF76E000EF86E5BEC00F0120037
:10016000327C4A6F7368756120557269656C204DE9
:1001700065677569736F7C524D3030317C417072A8
:10018000696C2C20323032337C417072696C2032C1
:10019000302C20323032337C4D61792032302C20AB
:1001A000323032337C323730302E30307C333030A6
:1001B0002E30307C3230302E30307C333230302EA6
:1001C00030307C302E30307C4D61792032322C2022
:0601D000323032330D0055
:1001D600317C4A6F7368756120557269656C204D74
:1001E60065677569736F7C524D3030317C41707232
:1001F600696C2032302C2032303233202D204D6174
:10020600792032302C20323032337C323730302E67
:1002160030307C3330302E30307C313030307C32F0
:100226003030307C313030307C3430302E30307CE1
:100236003230302E30307C333230302E30300D00BC
:10024600337C46656272756172797C333230302E4A
:1002560030307C4D617263682030312C2032303270
:10026600337C2B3633393631343638303430360D2C
:010276000087
:020000040030CA
:0E000000000C1F1EFF8381FF0FC00FE00F409A
:00000001FF
