:1000000070EF00F00000000000EF00F000000000C2
:0A0010000000000000000000F3D71C
:0E001C00ACB202D00000FCD75FC0ADFF1200F6
:10002A0065C0E9FF66C0EAFFEE520BE065C0E9FF72
:10003A0066C0EAFFEECF5FF0ECDF0001654B662B8E
:0A004A00EFD70D0E5F6EE5DF120028
:1000540065C0E9FF66C0EAFFEE520BE065C0E9FF48
:1000640066C0EAFFEECF5FF0D7DF0001654B662B79
:04007400EFD71200B0
:100078000900F5CFE6FF0006FBE10106F9E11200F1
:100088001C0E0001616F000E626F5F0E636F000E41
:10009800646FFF0E536EFF0E546E000E556E000E09
:1000A800566EFF0E576EFF0E586E000E596E000EFC
:1000B8005A6EFF0E5B6EFF0E5C6E000E5D6E000EDC
:1000C8005E6EAC8A900EAB6E948E949C9EAA03D002
:0800D800AECF00F0FBD71200CF
:1000E000FEEC00F094909492B886B06A670EAF6E02
:1000F000AC84CADF820E0C6EDD0E0D6E0D2EFED7A7
:100100000C2EFCD700000000000E161802E1000EB5
:10011000151828E18B908B92060E0B6E130E0C6E49
:10012000AD0E0D6E00010D2EFDD70C2EFBD70B2E44
:10013000F9D700000000170E656F000E666F75DFBF
:10014000010E156E000E166E1A0E0B6E5E0E0C6E04
:100150006E0E0D6E0D2EFED70C2EFCD70B2EFAD781
:1001600000002BD0000E161802E1010E151825E133
:100170008B808B92060E0B6E130E0C6EAD0E0D6EF9
:100180000D2EFED70C2EFCD70B2EFAD70000000048
:10019000350E0001656F000E666F5CDF156A166A2A
:1001A0001A0E0B6E5E0E0C6E6E0E0D6E0D2EFED7C1
:0E01B0000C2EFCD70B2EFAD70000A6D7FFD7D7
:1001FC0010EE15F03E0E006E010E016EBE0EF66E88
:0E020C00010EF76E000EF86E3CEC00F01200D2
:0201BE0000003F
:1001C00048656C6C6F20576F726C642C2074686982
:0E01D00073206973206F757470757420310090
:1001DE0048656C6C6F20576F726C642C2074686964
:0E01EE0073206973206F757470757420320071
:020000040030CA
:0E000000000C1F1EFF8181FF0FC00FE00F409C
:00000001FF
