:100000004EEF00F00000000000EF00F000000000E4
:0A0010000000000000000000F3D71C
:10001C00AECF01F0ABA202D0AB98AB8801C000F020
:02002C001200C0
:0E002E00ACB202D00000FCD726C0ADFF12001D
:0A003C00000E9EBA010E006E1200C5
:100046002E0E226E000E236E260E246E000E256ED8
:100056001C0E1D6E000E1E6E000E1F6E000E206E14
:100066003C0E156E000E166E000E176E000E186E04
:10007600FF0E196EFF0E1A6E000E1B6E000E1C6E22
:10008600AC8A900EAB6E948E949C9EAA03D0AECF93
:0600960000F0FBD7120090
:10009C00B886B06A670EAF6EAC84CFDF820E0C6E82
:1000AC00DD0E0D6E0D2EFED70C2EFCD700000000C1
:1000BC00BFDF005206E0ACDF00C021F000C026F02C
:0600CC00B0DFF6D7FFD7FC
:020000040030CA
:0E000000000C1F1EFF8381FF0FC00FE00F409A
:00000001FF
