:0400000093EF1AF070
:10080000004C6F6164696E672E2E00506F7331006B
:10081000506F733200506F7333005031005032000C
:0708200050330025580000D1
:100828002B50800B346E2B502B24366E2AAE1FEFC4
:1008380004F021EF04F022EF04F036803650D8B4EB
:1008480028EF04F02AEF04F03FEF04F03628D8A48C
:1008580030EF04F032EF04F03AEF04F0000E286EA7
:10086800000E296E000E2A6E000E2B6E2A8E000EC8
:100878002B6E47EF04F0000E286E000E296E000E56
:100888002A6E000E2B6E2F50800B356E34503518A3
:10089800D8B451EF04F053EF04F054EF04F0348C63
:1008A8002F502F24356E2EAE5CEF04F05EEF04F06F
:1008B8005FEF04F035803550D8B465EF04F067EF8A
:1008C80004F07CEF04F03528D8A46DEF04F06FEF46
:1008D80004F077EF04F0000E2C6E000E2D6E000E63
:1008E8002E6E000E2F6E2E8E000E2F6E84EF04F0EB
:1008F800000E2C6E000E2D6E000E2E6E000E2F6E4A
:100908003650355CD8B08BEF04F08DEF04F0B4EFBF
:1009180004F034AC92EF04F094EF04F096EF04F096
:10092800800E341A36C037F035C036F037C035F08F
:1009380028C037F02CC028F037C02CF029C037F079
:100948002DC029F037C02DF02AC037F02EC02AF06C
:1009580037C02EF02BC037F02FC02BF037C02FF048
:10096800000E376E365035C030F0316A305E000EFA
:10097800315A31BEC9EF04F0315009E11A0E305C2A
:10098800D8A0C9EF04F0CBEF04F002EF05F028502F
:1009980029102A102B10D8A4D4EF04F0D7EF04F0B4
:1009A800010ED8EF04F0000E376E000E286E000E10
:1009B800296E000E2A6E000E2B6E35C036F00BEF36
:1009C80005F037A0EAEF04F0ECEF04F0F2EF04F0E2
:1009D800D89037300109376EF4EF04F0D8903732E9
:1009E80028A0F9EF04F0FBEF04F0FCEF04F0378ED9
:1009F8002B342B322A3229322832362A3550365CAB
:100A0800D8A009EF05F00BEF05F0E5EF04F034BCD2
:100A180010EF05F012EF05F052EF05F03650D8A4AC
:100A280018EF05F01AEF05F024EF05F0000E286E18
:100A3800000E296E000E2A6E000E2B6E73EF06F064
:100A48002C5028262D5029222E502A222F502B2276
:100A58002BA031EF05F033EF05F0DFEF05F037A0FD
:100A680038EF05F03AEF05F040EF05F0D890373051
:100A78000109376E42EF05F0D890373228A047EFCA
:100A880005F049EF05F04AEF05F0378E2B342B328D
:100A98002A3229322832362ADFEF05F02C50285C1A
:100AA8002D5029582E502A582B50800A306E2F501E
:100AB800800A3058D8B063EF05F065EF05F090EF85
:100AC80005F028502C5C306E29502D58316E2A5074
:100AD8002E58326E2B502F58336EFF0E3024286E4E
:100AE800FF0E3120296EFF0E32202A6EFF0E3320B2
:100AF8002B6E800E341A376C3750D8A486EF05F069
:100B080088EF05F098EF05F0010E2826000E29223F
:100B18002A222B2298EF05F02C50285E2D50295AB6
:100B28002E502A5A2F502B5A285029102A102B1091
:100B3800D8A4A1EF05F0A3EF05F0D8EF05F03750E2
:100B4800D8A4A9EF05F0ABEF05F0D8EF05F0000E3B
:100B5800286E000E296E000E2A6E000E2B6E73EFA3
:100B680006F0D890283629362A362B3637AEBFEF0E
:100B780005F0C1EF05F0C2EF05F0288037A0C7EFF8
:100B880005F0C9EF05F0CDEF05F0D8803736CFEF87
:100B980005F0D89037363650D8B4D5EF05F0D7EFF2
:100BA80005F0D8EF05F036062AAEDDEF05F0DFEFE9
:100BB80005F0B5EF05F0000E356E37AEE6EF05F03F
:100BC800E8EF05F000EF06F037C030F07F0E301682
:100BD800D8B4F1EF05F0F3EF05F0F7EF05F0010EEB
:100BE800356E00EF06F028A0FCEF05F0FEEF05F0EB
:100BF80000EF06F0F3EF05F03550D8B406EF06F035
:100C080008EF06F033EF06F0010E2826000E292221
:100C18002A222B222BA013EF06F015EF06F033EF54
:100C280006F028C030F029C031F02AC032F02BC0BD
:100C380033F03334333232323132303230C028F08C
:100C480031C029F032C02AF033C02BF03628D8B48E
:100C580030EF06F032EF06F033EF06F0362A36288A
:100C6800D8B439EF06F03BEF06F043EF06F0365004
:100C7800D8A441EF06F043EF06F055EF06F0000E5A
:100C8800286E000E296E000E2A6E000E2B6E36504E
:100C9800D8A451EF06F053EF06F055EF06F0000E1A
:100CA800346E36A05AEF06F05CEF06F05FEF06F000
:100CB8002A8E60EF06F02A9ED89036302B6E34AE1E
:100CC80068EF06F06AEF06F06BEF06F02B8E28C08F
:100CD80028F029C029F02AC02AF02BC02BF01200D6
:100CE800A00E0E6E860E0F6E010E106E000E116EA7
:100CF80043EC1BF04E0E2CEC12F00FEC11F0800EB2
:100D0800386E250E396E000E3A6E000E3B6EDBEC27
:100D180017F0010E076E010E91EC19F0010E056E29
:100D2800080E066EDFEC14F0230E0001EE6F3F0E86
:100D3800ED6F220EE82EFED7ED2FFCD7EE2FFAD757
:100D480000F0010EBFEC1BF0DF0E266E000E276EC2
:100D5800B7EC1DF0B50E286E000E296EF7EC1CF0EE
:100D6800B50E206E000E216EEEEC15F000016C6FD2
:100D7800DE0E266E000E276EAFEC1DF0A10E286E5B
:100D8800000E296EE8EC1CF0A10E206E000E216EFC
:100D980094EC15F000016B6FDD0E266E000E276EC9
:100DA800A7EC1DF08D0E286E000E296ED9EC1CF0F4
:100DB8008D0E206E000E216E3AEC15F000016A6F60
:100DC800B50E016E000E026E98EC1BF001040210C5
:100DD800D8B4F1EF06F0F3EF06F011EF07F0A10E2B
:100DE800016E000E026E98EC1BF001040210D8B4DC
:100DF80000EF07F002EF07F011EF07F08D0E016E1C
:100E0800000E026E98EC1BF001040210D8A40FEF3C
:100E180007F011EF07F014EF07F0010EBFEC1BF01D
:100E2800020E076E010E91EC19F000016C51D8A466
:100E380020EF07F022EF07F070EF07F01A0E056EAB
:100E4800080E066E59EC19F0000E0001EF6FC90E7E
:100E58005A6E000E5B6E230E5C6E080E5D6EB50E4C
:100E6800EF25D96EDA6A000EDA22DF50ED6FED5108
:100E78005E6E5F6A6FEC1BF0C90E056E000E066EA3
:100E8800DFEC14F0C90E056E000E066E59EC19F071
:100E98000001EF2B040EEF6554EF07F056EF07F053
:100EA8002BEF07F0010E076E010E91EC19F00B0EF7
:100EB800056E080E066EDFEC14F0120E0001EE6FE0
:100EC800200EED6F0F0EE82EFED7ED2FFCD7EE2F7C
:100ED800FAD700D07FEF07F0020E0001EE6FB70ED1
:100EE800ED6F4C0EE82EFED7ED2FFCD7EE2FFAD77C
:100EF80000F017EC1BF0020E076E010E91EC19F0D2
:100F080000016B51D8A48BEF07F08DEF07F0DBEFF2
:100F180007F01D0E056E080E066E59EC19F0000E4E
:100F28000001F06FC90E5A6E000E5B6E230E5C6EE8
:100F3800080E5D6EA10EF025D96EDA6A000EDA226F
:100F4800DF50ED6FED515E6E5F6A6FEC1BF0C90EFE
:100F5800056E000E066EDFEC14F0C90E056E000E6D
:100F6800066E59EC19F00001F02B040EF065BFEF86
:100F780007F0C1EF07F096EF07F0010E076E010EBC
:100F880091EC19F0100E056E080E066EDFEC14F0E9
:100F9800120E0001EE6F200EED6F0F0EE82EFED739
:100FA800ED2FFCD7EE2FFAD700D0EAEF07F0020EAC
:100FB8000001EE6FB70EED6F4C0EE82EFED7ED2F49
:100FC800FCD7EE2FFAD700F0EBEC1AF0020E076E02
:100FD800010E91EC19F000016A51D8A4F6EF07F060
:100FE800F8EF07F046EF08F0200E056E080E066EC3
:100FF80059EC19F0000E0001F16FC90E5A6E000E7F
:101008005B6E230E5C6E080E5D6E8D0EF125D96E3B
:10101800DA6A000EDA22DF50ED6FED515E6E5F6A1C
:101028006FEC1BF0C90E056E000E066EDFEC14F0B7
:10103800C90E056E000E066E59EC19F00001F12B71
:10104800040EF1652AEF08F02CEF08F001EF08F024
:10105800010E076E010E91EC19F0150E056E080EC3
:10106800066EDFEC14F0120E0001EE6F200EED6F2D
:101078000F0EE82EFED7ED2FFCD7EE2FFAD700D0B3
:10108800A8EF06F0020E0001EE6FB70EED6F4C0EE2
:10109800E82EFED7ED2FFCD7EE2FFAD700F0BFECE5
:1010A8001AF0A8EF06F000EF00F01250800B1F6E48
:1010B80012501224266E11AE64EF08F066EF08F0A5
:1010C80067EF08F026802650D8B46DEF08F06FEF70
:1010D80008F084EF08F02628D8A475EF08F077EF19
:1010E80008F07FEF08F0000E0F6E000E106E000E75
:1010F800116E000E126E118E000E126E8CEF08F03B
:10110800000E0F6E000E106E000E116E000E126EA5
:101118001650800B1F1A16501624276E15AE97EF1F
:1011280008F099EF08F09AEF08F027802750D8B414
:10113800A0EF08F0A2EF08F0B7EF08F02728D8A42E
:10114800A8EF08F0AAEF08F0B2EF08F0000E136E4F
:10115800000E146E000E156E000E166E158E000E23
:10116800166EBFEF08F0000E136E000E146E000E20
:10117800156E000E166E1350141015101610D8A404
:10118800C8EF08F0CAEF08F0E2EF08F0000E0F6EA3
:10119800000E106E000E116E000E126E800E1112EF
:1011A8007F0E12121F5012120FC00FF010C010F055
:1011B80011C011F012C012F025EF0AF02650D8A481
:1011C800E8EF08F0EAEF08F0F4EF08F0000E0F6E11
:1011D800000E106E000E116E000E126E25EF0AF052
:1011E800275026C017F0186A175E000E185A7F0E8F
:1011F8001724206E000E1820216E0FC01BF010C09F
:101208001CF011C01DF012C01EF0000E0F6E000E73
:10121800106E000E116E000E126E000E226E000E81
:10122800236E000E246E000E256E000E276E55EFFD
:1012380009F02750D8B423EF09F025EF09F03CEF67
:1012480009F0D8901B361C361D361E36D8900F363E
:1012580010361136123625AE34EF09F036EF09F0A4
:1012680037EF09F00F80D8902236233624362536FA
:1012780013501B5C14501C5815501D5816501E58FE
:10128800D8A049EF09F04BEF09F054EF09F0258C8D
:1012980013501B5E14501C5A15501D5A16501E5AD6
:1012A800272A190E27645BEF09F05DEF09F01DEF9F
:1012B80009F01B501C101D101E10D8B466EF09F061
:1012C80068EF09F080EF09F0228080EF09F0D890EC
:1012D8000F3610361136123625AE75EF09F077EF56
:1012E80009F078EF09F00F80D8902236233624369B
:1012F80025362006D8A0210611AE85EF09F087EF24
:1013080009F06BEF09F0000E276E25AE8EEF09F09D
:1013180090EF09F0B4EF09F0FF0E2214176EFF0EDC
:101328002314186EFF0E2414196E7F0E25141A6EDE
:101338001750181019101A10D8B4A5EF09F0A7EF14
:1013480009F0ABEF09F0010E276EB4EF09F00FA01A
:10135800B0EF09F0B2EF09F0B4EF09F0A7EF09F028
:101368002750D8B4BAEF09F0BCEF09F0E0EF09F064
:10137800010E0F26000E10221122122212A0C7EF12
:1013880009F0C9EF09F0E0EF09F00FC017F010C03D
:1013980018F011C019F012C01AF01A341A321932A2
:1013A8001832173217C00FF018C010F019C011F01A
:1013B8001AC012F0204A212A21BEEBEF09F0215071
:1013C80008E12028D8A0EBEF09F0EDEF09F0F8EFDD
:1013D80009F0000E216E2068000E0F6E000E106ED0
:1013E800000E116E000E126E21BE05EF0AF021509C
:1013F80006E12004D8B003EF0AF005EF0AF013EF76
:101408000AF0000E216E000E206E000E0F6E000E08
:10141800106E000E116E000E126E000E1F6E20C0B0
:1014280026F026A01AEF0AF01CEF0AF01FEF0AF0C8
:10143800118E20EF0AF0119ED8902630126ED6EF4A
:1014480008F01200000165BF2CEF0AF02EEF0AF039
:101458002FEF0AF0669365BF3CEF0AF0655106E18D
:101468006405D8B03AEF0AF03CEF0AF042EF0AF010
:10147800000E306E010E2F6E46EF0AF064C02FF09A
:1014880065C030F062C031F063C032F066A94FEF3A
:101498000AF051EF0AF055EF0AF0FE0E3126FF0E62
:1014A80032221EC033F01FC034F020C035F021C0F6
:1014B80036F022C037F023C038F024C039F025C0F8
:1014C8003AF0000E3C6E1F0E3B6E000E8C6F06EF5E
:1014D8000BF03B06D8A03C060F0E33143D6E3E6A57
:1014E8003EBE80EF0AF03E5009E10A0E3D5CD8A0EE
:1014F80080EF0AF082EF0AF08AEF0AF0570E3D24D7
:101508003D6E000E3E203E6E90EF0AF0300E3D24F8
:101518003D6E000E3E203E6EBF0E276EFF0E286EFB
:101528002650296E2A6A2750292628502A222A500E
:1015380007E11A0E295CD8B0A4EF0AF0A6EF0AF06A
:10154800C9EF0AF09F0E276EFF0E286E200E3D1081
:10155800296E000E3E102A6E2750292628502A226E
:101568002A5007E11A0E295CD8B0BDEF0AF0BFEF88
:101578000AF0C9EF0AF03DC007F03EC008F0E5ECFC
:101588001BF007C03DF008C03EF06D0E3B24D96E3D
:10159800000E3C20DA6E3DC0DFFF2F06D8A03006D3
:1015A8003106D8A0320633C027F034C028F035C041
:1015B80029F036C02AF037C02BF038C02CF039C0DB
:1015C8002DF03AC02EF0050EF3EF0AF0D8902E3227
:1015D8002D322C322B322A32293228322732E82E69
:1015E800EAEF0AF027C033F028C034F029C035F0FC
:1015F8002AC036F02BC037F02CC038F02DC039F097
:101608002EC03AF03CBE12EF0BF03C5009E1020E3E
:101618003B5CD8A012EF0BF014EF0BF045EF0BF08A
:1016280033503410351036103710381039103A103E
:10163800D8A421EF0BF023EF0BF06DEF0AF030BECA
:1016480030EF0BF0305006E12F04D8B02EEF0BF03E
:1016580030EF0BF06DEF0AF032BE3BEF0BF032507B
:1016680008E13104D8A03BEF0BF03DEF0BF045EF5C
:101678000BF0000166B343EF0BF045EF0BF06DEF95
:101688000AF0000166A94BEF0BF04DEF0BF063EF8A
:101698000BF03B06D8A03C066D0E3B24D96E000E1D
:1016A8003C20DA6E26C0DFFF3B06D8A03C066D0E54
:1016B8003B24D96E000E3C20DA6E300EDF6E1CC063
:1016C80011F01DC012F06D0E3B24136E000E3C206D
:1016D800146E31C015F032C016F008EC13F011C0CA
:1016E8001CF012C01DF012001C6E020E196E000EC6
:1016F8001B6E000E186E8DEF0BF0120E1B6E100E87
:10170800186EA2EF0BF0770E1B6E300E186EA2EF5C
:101718000BF01C50146E156A1550000AD8B497EFD8
:101728000BF0A2EF0BF014500C0AD8B487EF0BF0B3
:10173800020AD8B481EF0BF0A2EF0BF01B5080091E
:10174800016E020E75EC18F0800E0A6E040E22EC83
:101758001DF0800E0A6E0A0E55EC1DF0000E016E8B
:10176800010E75EC18F0000E1E6E000E1D6ECAEF0D
:101778000BF01D500D24D96E1E500E20DA6EDF506E
:10178800016E090E75EC18F01D4A1E2A0F50146ED2
:10179800156A14501D5C15501E58D8A0D6EF0BF0D2
:1017A800D8EF0BF0BDEF0BF01CC001F0010E75EC8B
:1017B80018F00C0E1C18D8A4E4EF0BF0E6EF0BF0B1
:1017C800EBEF0BF0800E0A6E0D0E55EC1DF01D6848
:1017D8001E68040EC8EC13F01F6E1D06D8A01E0666
:1017E8001D501E10D8B4FBEF0BF0FDEF0BF00EEF01
:1017F8000CF01FB002EF0CF004EF0CF00EEF0CF041
:101808001F5018140009D8B40CEF0CF00EEF0CF0B0
:10181800EDEF0BF0800E0A6E0D0E22EC1DF01D5040
:101828001E10D8B41AEF0CF01CEF0CF0BDEF0CF042
:10183800060EC8EC13F0146E1B0E1416D8A427EF6E
:101848000CF029EF0CF0BBEF0CF0000E196E1F50D6
:101858001B14146E14A033EF0CF035EF0CF037EFB7
:101868000CF0010E196E0C0E1C18D8A43EEF0CF0EB
:1018780040EF0CF0BDEF0CF00A0EC8EC13F01F6E31
:101888000C0EC8EC13F0070B1A6E1A50D8B44FEFB1
:101898000CF051EF0CF073EF0CF0F80E146EFF0E15
:1018A800156E1A501FC016F0176AD89016361736DC
:1018B800D89016361736D890163617361626000ED4
:1018C8001722145016261550172212C0D9FF13C01C
:1018D800DAFF16C0DEFF17C0DDFF7DEF0CF01F50EA
:1018E800080D12C0D9FF13C0DAFFF3CFDEFFF4CF23
:1018F800DDFF1F50D8A483EF0CF085EF0CF087EFC5
:101908000CF0010E1F6E100E1F648DEF0CF08FEFA0
:101918000CF091EF0CF0100E1F6E000E1E6E000EF4
:101928001D6EA3EF0CF01D501024D96E1E5011200F
:10193800DA6E090EC8EC13F0DF6E1D4A1E2A1F501E
:10194800146E156A14501D5C15501E58D8A0AFEFC0
:101958000CF0B1EF0CF097EF0CF01D501024D96E7D
:101968001E501120DA6E000EDF6EBDEF0CF0020E75
:10197800196E195012001C6E020E196E000E1B6EA5
:10198800000E186ED4EF0CF0120E1B6E100E186EAF
:10199800E9EF0CF0770E1B6E300E186EE9EF0CF0C5
:1019A8001C50146E156A1550000AD8B4DEEF0CF0FE
:1019B800E9EF0CF014500C0AD8B4CEEF0CF0020A80
:1019C800D8B4C8EF0CF0E9EF0CF01B508009016E99
:1019D800020EC1EC18F0800E0A6E040E2FEC1DF0FA
:1019E800800E0A6E0A0E61EC1DF0000E016E010EEB
:1019F800C1EC18F0000E1E6E000E1D6E11EF0DF0FA
:101A08001D500D24D96E1E500E20DA6EDF50016E67
:101A1800090EC1EC18F01D4A1E2A0F50146E156AE3
:101A280014501D5C15501E58D8A01DEF0DF01FEF67
:101A38000DF004EF0DF01CC001F0010EC1EC18F020
:101A48000C0E1C18D8A42BEF0DF02DEF0DF032EF73
:101A58000DF0800E0A6E0D0E61EC1DF01D681E68FB
:101A6800040E25EC14F01F6E1D06D8A01E061D508E
:101A78001E10D8B442EF0DF044EF0DF055EF0DF005
:101A88001FB049EF0DF04BEF0DF055EF0DF01F5063
:101A980018140009D8B453EF0DF055EF0DF034EFDA
:101AA8000DF0800E0A6E0D0E2FEC1DF01D501E104D
:101AB800D8B461EF0DF063EF0DF004EF0EF0060EF1
:101AC80025EC14F0146E1B0E1416D8A46EEF0DF04E
:101AD80070EF0DF002EF0EF0000E196E1F501B1480
:101AE800146E14A07AEF0DF07CEF0DF07EEF0DF080
:101AF800010E196E0C0E1C18D8A485EF0DF087EF97
:101B08000DF004EF0EF00A0E25EC14F01F6E0C0E0B
:101B180025EC14F0070B1A6E1A50D8B496EF0DF096
:101B280098EF0DF0BAEF0DF0F80E146EFF0E156E6B
:101B38001A501FC016F0176AD89016361736D89064
:101B480016361736D890163617361626000E172270
:101B5800145016261550172212C0D9FF13C0DAFFE9
:101B680016C0DEFF17C0DDFFC4EF0DF01F50080DD3
:101B780012C0D9FF13C0DAFFF3CFDEFFF4CFDDFFC9
:101B88001F50D8A4CAEF0DF0CCEF0DF0CEEF0DF03A
:101B9800010E1F6E100E1F64D4EF0DF0D6EF0DF07E
:101BA800D8EF0DF0100E1F6E000E1E6E000E1D6E8B
:101BB800EAEF0DF01D501024D96E1E501120DA6E78
:101BC800090E25EC14F0DF6E1D4A1E2A1F50146EF4
:101BD800156A14501D5C15501E58D8A0F6EF0DF06C
:101BE800F8EF0DF0DEEF0DF01D501024D96E1E50E9
:101BF8001120DA6E000EDF6E04EF0EF0020E196E81
:101C0800195012001C6E020E196E000E1B6E000E8B
:101C1800186E1BEF0EF0120E1B6E100E186E30EFC2
:101C28000EF0770E1B6E300E186E30EF0EF01C5053
:101C3800146E156A1550000AD8B425EF0EF030EF6F
:101C48000EF014500C0AD8B415EF0EF0020AD8B4EE
:101C58000FEF0EF030EF0EF01B508009016E020EF0
:101C68000DEC19F0800E0A6E040E3CEC1DF0800E8F
:101C78000A6E0A0E6DEC1DF0000E016E010E0DECE1
:101C880019F0000E1E6E000E1D6E58EF0EF01D505E
:101C98000D24D96E1E500E20DA6EDF50016E090E2B
:101CA8000DEC19F01D4A1E2A0F50146E156A1450B7
:101CB8001D5C15501E58D8A064EF0EF066EF0EF0AC
:101CC8004BEF0EF01CC001F0010E0DEC19F00C0EDC
:101CD8001C18D8A472EF0EF074EF0EF079EF0EF026
:101CE800800E0A6E0D0E6DEC1DF01D681E68040E48
:101CF80082EC14F01F6E1D06D8A01E061D501E1083
:101D0800D8B489EF0EF08BEF0EF09CEF0EF01FB0F9
:101D180090EF0EF092EF0EF09CEF0EF01F5018149B
:101D28000009D8B49AEF0EF09CEF0EF07BEF0EF09E
:101D3800800E0A6E0D0E3CEC1DF01D501E10D8B41E
:101D4800A8EF0EF0AAEF0EF04BEF0FF0060E82ECA4
:101D580014F0146E1B0E1416D8A4B5EF0EF0B7EFDE
:101D68000EF049EF0FF0000E196E1F501B14146E81
:101D780014A0C1EF0EF0C3EF0EF0C5EF0EF0010E88
:101D8800196E0C0E1C18D8A4CCEF0EF0CEEF0EF086
:101D98004BEF0FF00A0E82EC14F01F6E0C0E82EC63
:101DA80014F0070B1A6E1A50D8B4DDEF0EF0DFEFFF
:101DB8000EF001EF0FF0F80E146EFF0E156E1A50AC
:101DC8001FC016F0176AD89016361736D8901636F0
:101DD8001736D890163617361626000E17221450C6
:101DE80016261550172212C0D9FF13C0DAFF16C0E5
:101DF800DEFF17C0DDFF0BEF0FF01F50080D12C0FC
:101E0800D9FF13C0DAFFF3CFDEFFF4CFDDFF1F5099
:101E1800D8A411EF0FF013EF0FF015EF0FF0010E2C
:101E28001F6E100E1F641BEF0FF01DEF0FF01FEF5A
:101E38000FF0100E1F6E000E1E6E000E1D6E31EF9D
:101E48000FF01D501024D96E1E501120DA6E090EA5
:101E580082EC14F0DF6E1D4A1E2A1F50146E156A9C
:101E680014501D5C15501E58D8A03DEF0FF03FEFE1
:101E78000FF025EF0FF01D501024D96E1E501120C1
:101E8800DA6E000EDF6E4BEF0FF0020E196E19506E
:101E9800120041C0D9FF42C0DAFFDECFF6FFDDCF26
:101EA800F7FF0800F550250AD8A45DEF0FF05FEFA3
:101EB8000FF019EF10F041C0D9FF42C0DAFFDE2A57
:101EC800000EDD22000E0001636F000E626F62C01B
:101ED80066F063C067F06469656941C0D9FF42C0B4
:101EE800DAFFDECFF6FFDDCFF7FF0800F550780AFE
:101EF800D8B481EF0FF083EF0FF095EF0FF041C0EA
:101F0800D9FF42C0DAFFDECFF6FFDDCFF7FF0800CA
:101F1800F550580AD8A493EF0FF095EF0FF0E3EFC0
:101F28000FF041C0D9FF42C0DAFFDECFF6FFDDCFA8
:101F3800F7FF0800F5CF51F041C0D9FF42C0DAFFE2
:101F4800DE2A000EDD2243C0D9FF44C0DAFFDFCF0E
:101F580045F0020EDE26DFCF46F0000EDD2245C03A
:101F6800D9FF46C0DAFFDECF47F0DDCF48F047C0E3
:101F780049F048C04AF04B6A4C6A4D6A4E6A4F6A4B
:101F8800506A3FC01CF040C01DF049C01EF04AC056
:101F98001FF04BC020F04CC021F04DC022F04EC0C5
:101FA80023F04FC024F050C025F051C026F026EC95
:101FB8000AF01CC03FF01DC040F034EF10F041C0E3
:101FC800D9FF42C0DAFFDECFF6FFDDCFF7FF08000A
:101FD800F550250AD8A4F3EF0FF0F5EF0FF00CEF4A
:101FE80010F041C0D9FF42C0DAFFDE2A000EDD2220
:101FF800000E026E250E016E3FC003F040C004F0D3
:10200800A3EC12F0000E406E010E3F6E34EF10F09C
:1020180041C0D9FF42C0DAFFDE2A000EDD22000EE1
:10202800406E000E3F6E34EF10F041C0D9FF42C041
:10203800DAFFDECFF6FFDDCFF7FF0800F550016EBF
:10204800026A3FC003F040C004F0A3EC12F041C0A4
:10205800D9FF42C0DAFFDE2A000EDD2206EF10F0BB
:102068001200096E0950D8B43CEF10F03EEF10F0A2
:1020780060EF10F004BE45EF10F043EF10F060EF92
:1020880010F001C005F002C006F003C007F004C05C
:1020980008F0051E061E071E081E052A000E062249
:1020A8000722082205C00BF006C00CF007C00DF08F
:1020B80008C00EF068EF10F001C00BF002C00CF081
:1020C80003C00DF004C00EF00150021003100410FC
:1020D800D8A471EF10F073EF10F07DEF10F0000E40
:1020E800016E000E026E000E036E000E046E0EEFFF
:1020F80011F0960E0A6E87EF10F00A2AD8900E3269
:102108000D320C320B32000E0B14056E000E0C143F
:10211800066E000E0D14076EFE0E0E14086E0550A6
:10212800061007100810D8A49CEF10F09EEF10F0CE
:1021380081EF10F0ACEF10F00A2A010E0B26000E0A
:102148000C220D220E22D8900E320D320C320B3298
:10215800000E0B14056E000E0C14066E000E0D1406
:10216800076EFF0E0E14086E0550061007100810B3
:10217800D8A4C1EF10F0C3EF10F0A0EF10F0CBEF30
:1021880010F00A06D8900B360C360D360E360DBEFA
:10219800D0EF10F0D2EF10F0DAEF10F0020E0A6074
:1021A800D8EF10F0DAEF10F0C5EF10F00AB0DFEF5B
:1021B80010F0E1EF10F0E2EF10F00D9ED8900A3227
:1021C8000AC005F0066A076A086A05C008F0076AC7
:1021D800066A056A05500B1206500C1207500D12BC
:1021E80008500E120950D8B4FCEF10F0FEEF10F0B2
:1021F80006EF11F004BE05EF11F003EF11F006EF42
:1022080011F00E8E0BC001F00CC002F00DC003F0EF
:102218000EC004F01200959695929296929492921E
:102228009290958495988C928C96898689848982D7
:1022380089808C889AEC16F08D0E016E2A0E0DECB2
:1022480019F03E0E016E2B0E0DEC19F01E0E016EEC
:102258002D0E0DEC19F0000E016E2C0E0DEC19F080
:10226800400E016E150E0DEC19F03D0E016E110EAB
:102278000DEC19F0D1EC1DF09EEC1DF08D0E016EE9
:102288002A0EC1EC18F03E0E016E2B0EC1EC18F0B0
:102298001E0E016E2D0EC1EC18F0000E016E2C0EF4
:1022A800C1EC18F0400E016E150EC1EC18F03D0E91
:1022B800016E110EC1EC18F0CBEC1DF095EC1DF081
:1022C8008D0E016E2A0E75EC18F03E0E016E2B0E67
:1022D80075EC18F01E0E016E2D0E75EC18F0000E40
:1022E800016E2C0E75EC18F0400E016E150E75EC93
:1022F80018F03D0E016E110E75EC18F0C5EC1DF0CE
:102308008CEC1DF08D0E016E2A0E29EC18F03E0E95
:10231800016E2B0E29EC18F01E0E016E2D0E29EC05
:1023280018F0000E016E2C0E29EC18F0400E016E0C
:10233800150E29EC18F03D0E016E110E29EC18F05F
:10234800BFEC1DF083EC1DF01200033404340A6E58
:102358000A50D8A4B2EF11F0B4EF11F0BEEF11F0AB
:10236800000E016E000E026E000E036E000E046E6B
:102378002BEF12F001C005F002C006F003C007F011
:1023880004C008F0200ECEEF11F0D89008320732C2
:1023980006320532E82EC9EF11F00550096E038E9A
:1023A800FF0E0116FF0E0216FF0E0316000E04168E
:1023B800960E0A5E0ABEE5EF11F0E3EF11F0FBEFAF
:1023C80011F00A50800A970FD8B0EDEF11F0EFEF37
:1023D80011F0F1EF11F0B4EF11F0D890043203329C
:1023E800023201320A3EF1EF11F013EF12F01F0E24
:1023F8000A6401EF12F003EF12F00BEF12F0B4EFE2
:1024080011F0D89001360236033604360A060A500F
:10241800D8A411EF12F013EF12F005EF12F00950E3
:10242800D8B419EF12F01BEF12F023EF12F0041ECC
:10243800031E021E016C000E02220322042201C0A8
:1024480001F002C002F003C003F004C004F012005F
:10245800096E09C0F2F0000E06EC1DF0020E086EBF
:102468005F0E076EA30EE82EFED7072EFCD7082EA8
:10247800FAD700F0030EBFEC1BF02C0E076ED40E3B
:10248800E82EFED7072EFCD7030EBFEC1BF02C0E50
:10249800076ED40EE82EFED7072EFCD7030EBFEC2E
:1024A8001BF02C0E076ED40EE82EFED7072EFCD795
:1024B800020EBFEC1BF02C0E076ED40EE82EFED7D2
:1024C800072EFCD7280EBFEC1BF0020E086EB70EC5
:1024D800076E4C0EE82EFED7072EFCD7082EFAD72B
:1024E80000D00C0EBFEC1BF0020E086EB70E076E84
:1024F8004C0EE82EFED7072EFCD7082EFAD700D0B0
:10250800010EBFEC1BF0020E086EB70E076E4C0EE4
:10251800E82EFED7072EFCD7082EFAD700D0060ED5
:10252800BFEC1BF0020E086EB70E076E4C0EE82EBD
:10253800FED7072EFCD7082EFAD700D0120003507A
:102548000410D8B4AAEF12F0ACEF12F0B5EF12F005
:1025580003500410D8A4B3EF12F0B5EF12F0BAEF9D
:1025680012F00150D7EC1DF007EF13F020EE09F040
:102578000350D9260450DA22DE50DE10D8B4C7EF53
:1025880012F0C9EF12F0E4EF12F020EE09F0035058
:10259800D9260450DA2210EE03F00350E126045045
:1025A800E222DE50E65CE650800A096EDE50800AC0
:1025B8000958D8B0E2EF12F0E4EF12F007EF13F089
:1025C80020EE03F00350D9260450DA22DECF05F0BE
:1025D800DDCF06F003C0D9FF04C0DAFFDECF07F075
:1025E800DDCF08F005500724D96E06500820DA6EB2
:1025F80001C0DFFF20EE03F00350D9260450DA2291
:10260800DE2A000EDD221200000166A10EEF13F093
:1026180010EF13F01AEF13F013C00AF014C00BF008
:1026280011C00CF012C00DF007EC1CF016BE1FEF25
:1026380013F021EF13F027EF13F015C01AF016C0AE
:102648001BF02BEF13F0000E1B6E000E1A6E000E1F
:10265800196E000E186E3DEF13F0000E026E200E7C
:10266800016E11C003F012C004F0A3EC12F0184A76
:10267800192A1A50185C1950800A176E1B50800AC4
:102688001758D8A04AEF13F04CEF13F031EF13F0BE
:10269800000166B152EF13F054EF13F05EEF13F040
:1026A80013C00AF014C00BF011C00CF012C00DF0EA
:1026B80007EC1CF013C001F014C002F098EC1BF0FA
:1026C8001A500124116E1B500220126E1200036E64
:1026D800000E076E000E066E8C928990035003243C
:1026E8007E0B016E026A800E0110046E0250056EA8
:1026F800000E096E080E086E04BE85EF13F089EF10
:1027080013F0016A012A8AEF13F0016A01460146B3
:1027180001468C500118F70B01188C6E8C82D890EA
:10272800043605368C920806D8A009060850091008
:10273800D8A4A1EF13F0A3EF13F080EF13F0000E6D
:10274800096E080E086E8C82D8900636073683B458
:10275800B0EF13F0B4EF13F0016A012AB5EF13F0EC
:10276800016A015006128C920806D8A00906085082
:102778000910D8A4C2EF13F0C4EF13F0A7EF13F0B9
:1027880089808C8206501200036E000E076E000EC0
:10279800066E8C928992035003247E0B016E026AA6
:1027A800800E0110046E0250056E000E096E080EB0
:1027B800086E04BEE2EF13F0E6EF13F0016A012A97
:1027C800E7EF13F0016A0146014601468C500118F3
:1027D800F70B01188C6E8C82D890043605368C92D3
:1027E8000806D8A0090608500910D8A4FEEF13F06F
:1027F80000EF14F0DDEF13F0000E096E080E086EFE
:102808008C82D8900636073683B40DEF14F011EF9A
:1028180014F0016A012A12EF14F0016A015006123D
:102828008C920806D8A0090608500910D8A41FEFF2
:1028380014F021EF14F004EF14F089828C82065012
:102848001200036E000E076E000E066E8C928994BD
:10285800035003247E0B016E026A800E0110046E81
:102868000250056E000E096E080E086E04BE3FEF9A
:1028780014F043EF14F0016A012A44EF14F0016ADE
:102888000146014601468C500118F70B01188C6E61
:102898008C82D890043605368C920806D8A0090692
:1028A80008500910D8A45BEF14F05DEF14F03AEF6C
:1028B80014F0000E096E080E086E8C82D890063649
:1028C800073683B46AEF14F06EEF14F0016A012A38
:1028D8006FEF14F0016A015006128C920806D8A016
:1028E800090608500910D8A47CEF14F07EEF14F004
:1028F80061EF14F089848C8206501200036E000E7A
:10290800076E000E066E8C928996035003247E0B88
:10291800016E026A800E0110046E0250056E000EF0
:10292800096E080E086E04BE9CEF14F0A0EF14F0B8
:10293800016A012AA1EF14F0016A01460146014625
:102948008C500118F70B01188C6E8C82D8900436C5
:1029580005368C920806D8A0090608500910D8A494
:10296800B8EF14F0BAEF14F097EF14F0000E096EF8
:10297800080E086E8C82D8900636073683B4C7EFE7
:1029880014F0CBEF14F0016A012ACCEF14F0016ABD
:10299800015006128C920806D8A0090608500910A2
:1029A800D8A4D9EF14F0DBEF14F0BEEF14F0898649
:1029B8008C8206501200000E0A6E0001F3811BEF94
:1029C80015F00A500524076E000E0620086E07C091
:1029D800F6FF08C0F7FFF86A070EF76403D008008F
:1029E800F55005D0F6CFE1FFF7CFE2FFE750F00B47
:1029F8007FEC1CF00A500524076E000E0620086EB6
:102A080007C0F6FF08C0F7FFF86A070EF76403D09F
:102A18000800F55005D0F6CFE1FFF7CFE2FFE75009
:102A2800096E0938F00BF00B7FEC1CF00A2A0A50EB
:102A38000524076E000E0620086E07C0F6FF08C0C2
:102A4800F7FFF86A070EF76403D00800F55005D0C1
:102A5800F6CFE1FFF7CFE2FFE7500009D8A437EF40
:102A680015F039EF15F0E5EF14F01200000E236EA3
:102A7800000E016E0D0E75EC18F020C0D9FF21C0B4
:102A8800DAFF930EDF6E20EE01F02050D926215098
:102A9800DA22200EDF6E080E0A6E080E22EC1DF0F8
:102AA80020C00DF021C00EF0020E0F6E20C010F0F5
:102AB80021C011F0240E126E000E136E0C0E78EC6D
:102AC8000BF0266E2650D8A46CEF15F06EEF15F0BB
:102AD80092EF15F0000E276E27502024D96E000EB5
:102AE8002120DA6EDF50231A272A040E27647FEF8D
:102AF80015F081EF15F070EF15F020EE05F020507D
:102B0800D9262150DA222350DE18D8B48EEF15F0DA
:102B180090EF15F092EF15F0020E266E2650120077
:102B2800000E236E000E016E0D0EC1EC18F020C0D1
:102B3800D9FF21C0DAFF930EDF6E20EE01F020509E
:102B4800D9262150DA22200EDF6E080E0A6E080EF2
:102B58002FEC1DF020C00DF021C00EF0020E0F6EFC
:102B680020C010F021C011F0240E126E000E136E5A
:102B78000C0EBFEC0CF0266E2650D8A4C6EF15F04C
:102B8800C8EF15F0ECEF15F0000E276E2750202443
:102B9800D96E000E2120DA6EDF50231A272A040E80
:102BA8002764D9EF15F0DBEF15F0CAEF15F020EE2A
:102BB80005F02050D9262150DA222350DE18D8B447
:102BC800E8EF15F0EAEF15F0ECEF15F0020E266EBF
:102BD80026501200000E236E000E016E0D0E0DEC35
:102BE80019F020C0D9FF21C0DAFF930EDF6E20EE66
:102BF80001F02050D9262150DA22200EDF6E080E6F
:102C08000A6E080E3CEC1DF020C00DF021C00EF03D
:102C1800020E0F6E20C010F021C011F0240E126EAB
:102C2800000E136E0C0E06EC0EF0266E2650D8A47D
:102C380020EF16F022EF16F046EF16F0000E276E82
:102C480027502024D96E000E2120DA6EDF50231A77
:102C5800272A040E276433EF16F035EF16F024EF19
:102C680016F020EE05F02050D9262150DA22235004
:102C7800DE18D8B442EF16F044EF16F046EF16F01F
:102C8800020E266E26501200000E096E000E0A6E05
:102C9800000E0B6E000E0C6E055006100710081083
:102CA800D8B459EF16F05BEF16F091EF16F0010E5D
:102CB8000D6E65EF16F0D8900536063607360836DD
:102CC8000D2A08AE6AEF16F06CEF16F05FEF16F0FB
:102CD800D89009360A360B360C360550015C06507A
:102CE80002580750035808500458D8A07EEF16F031
:102CF80080EF16F089EF16F00550015E0650025A73
:102D08000750035A0850045A0980D89008320732ED
:102D1800063205320D2E6CEF16F009C001F00AC01C
:102D280002F00BC003F00CC004F012008C8800D035
:102D380000D000D08C9800D000D000D08C8800D073
:102D480000D000D00F0E016E010E0DEC19F000D06E
:102D580000D000D08C8800D000D000D08C9800D053
:102D680000D000D08C8800D000D000D00F0E016EAB
:102D7800010EC1EC18F000D000D000D08C8800D033
:102D880000D000D08C9800D000D000D08C8800D023
:102D980000D000D00F0E016E010E75EC18F000D0B7
:102DA80000D000D08C8800D000D000D08C9800D003
:102DB80000D000D08C8800D000D000D00F0E016E5B
:102DC800010E29EC18F000D000D000D01200040E3B
:102DD8000A6E050E22EC1DF0800E0A6E0A0E55ECE6
:102DE8001DF0000E136E05EF17F00DC0D9FF0EC0D1
:102DF800DAFFDF50016E090E75EC18F00D4A0E2A45
:102E0800132A0F50135CD8A00CEF17F00EEF17F031
:102E1800F9EF16F0030E016E010E75EC18F0136849
:102E2800050EC8EC13F0126E13061350D8B41FEF3A
:102E380017F021EF17F028EF17F012A426EF17F07C
:102E480028EF17F014EF17F0220EC8EC13F010C09B
:102E5800D9FF11C0DAFFDF6E20EE01F01050D9263D
:102E68001150DA22210EC8EC13F0DF6E1200040EA6
:102E78000A6E050E2FEC1DF0800E0A6E0A0E61EC2C
:102E88001DF0000E136E55EF17F00DC0D9FF0EC0E0
:102E9800DAFFDF50016E090EC1EC18F00D4A0E2A58
:102EA800132A0F50135CD8A05CEF17F05EEF17F0F1
:102EB80049EF17F0030E016E010EC1EC18F013680C
:102EC800050E25EC14F0126E13061350D8B46FEFEC
:102ED80017F071EF17F078EF17F012A476EF17F0EC
:102EE80078EF17F064EF17F0220E25EC14F010C0FD
:102EF800D9FF11C0DAFFDF6E20EE01F01050D9269D
:102F08001150DA22210E25EC14F0DF6E1200040EA7
:102F18000A6E050E3CEC1DF0800E0A6E0A0E6DEC72
:102F28001DF0000E136EA5EF17F00DC0D9FF0EC0EF
:102F3800DAFFDF50016E090E0DEC19F00D4A0E2A6A
:102F4800132A0F50135CD8A0ACEF17F0AEEF17F0B0
:102F580099EF17F0030E016E010E0DEC19F01368CE
:102F6800050E82EC14F0126E13061350D8B4BFEF9E
:102F780017F0C1EF17F0C8EF17F012A4C6EF17F05B
:102F8800C8EF17F0B4EF17F0220E82EC14F010C05F
:102F9800D9FF11C0DAFFDF6E20EE01F01050D926FC
:102FA8001150DA22210E82EC14F0DF6E1200949C8C
:102FB800948E38C001F039C002F03AC003F03BC02B
:102FC80004F0010E35EC10F001C013F002C014F04B
:102FD80003C015F004C016F0600E0F6EFE0E106EE2
:102FE800CD0E116E480E126E59EC08F00FC028F085
:102FF80010C029F011C02AF012C02BF0000E2C6E60
:10300800000E2D6E800E2E6EBF0E2F6E14EC04F087
:1030180028C03CF029C03DF02AC03EF02BC03FF04C
:103028003CC001F03DC002F03EC003F03FC004F0D8
:10303800A9EC11F00150AF6E200EAC6E900EAB6E85
:10304800F28EF28C9D8A9D881200036E8C92899074
:10305800035003247E0B046E080E056E04BE37EF82
:1030680018F03BEF18F0026A022A3CEF18F0026AE7
:103078000246024602468C500218F70B02188C6E64
:103088008C82D89004368C9205060550D8A44FEF50
:1030980018F051EF18F032EF18F0080E056E01BE67
:1030A80058EF18F05CEF18F0026A022A5DEF18F08A
:1030B800026A0246024602468C500218F70B0218B2
:1030C8008C6E8C82D89001368C9205060550D8A457
:1030D80070EF18F072EF18F053EF18F089808C82B7
:1030E8001200036E8C928992035003247E0B046EA7
:1030F800080E056E04BE83EF18F087EF18F0026A19
:10310800022A88EF18F0026A0246024602468C50EC
:103118000218F70B02188C6E8C82D89004368C92A9
:1031280005060550D8A49BEF18F09DEF18F07EEF28
:1031380018F0080E056E01BEA4EF18F0A8EF18F0FD
:10314800026A022AA9EF18F0026A024602460246FB
:103158008C500218F70B02188C6E8C82D8900136AE
:103168008C9205060550D8A4BCEF18F0BEEF18F0F5
:103178009FEF18F089828C821200036E8C928994DA
:10318800035003247E0B046E080E056E04BECFEFB9
:1031980018F0D3EF18F0026A022AD4EF18F0026A86
:1031A8000246024602468C500218F70B02188C6E33
:1031B8008C82D89004368C9205060550D8A4E7EF87
:1031C80018F0E9EF18F0CAEF18F0080E056E01BE06
:1031D800F0EF18F0F4EF18F0026A022AF5EF18F091
:1031E800026A0246024602468C500218F70B021881
:1031F8008C6E8C82D89001368C9205060550D8A426
:1032080008EF19F00AEF19F0EBEF18F089848C82B7
:103218001200036E8C928996035003247E0B046E71
:10322800080E056E04BE1BEF19F01FEF19F0026AB5
:10323800022A20EF19F0026A0246024602468C5022
:103248000218F70B02188C6E8C82D89004368C9278
:1032580005060550D8A433EF19F035EF19F016EF2D
:1032680019F0080E056E01BE3CEF19F040EF19F099
:10327800026A022A41EF19F0026A02460246024631
:103288008C500218F70B02188C6E8C82D89001367D
:103298008C9205060550D8A454EF19F056EF19F092
:1032A80037EF19F089868C8212009EA85EEF19F01C
:1032B80060EF19F059EF19F0000E096E7CEF19F064
:1032C80009500524076E000E0620086E07C0F6FF99
:1032D80008C0F7FFF86A070EF76403D00800F55036
:1032E80005D0F6CFE1FFF7CFE2FFE750AD6E092A30
:1032F80005C001F006C002F098EC1BF00950076EFB
:10330800086A0150075C02500858D8A08EEF19F0DF
:1033180090EF19F064EF19F012000A6EACEF19F093
:103328000A50BF0FBFEC1BF0C5EF19F00A50930FFE
:10333800BFEC1BF0C5EF19F00A50D30FBFEC1BF020
:10334800C5EF19F00A507F0FBFEC1BF0C5EF19F05D
:103358000750086E096A0950000AD8B4B6EF19F088
:10336800A6EF19F00850020AD8B494EF19F0010A30
:10337800D8B49AEF19F0070AD8B4A0EF19F0A6EF5D
:1033880019F01200226E070E016E0D0E75EC18F082
:1033980020C0D9FF21C0DAFF22C0DFFF20C00DF016
:1033A80021C00EF0010E0F6E20C010F021C011F0E8
:1033B800240E126E000E136E0C0E78EC0BF0236EBA
:1033C8002350D8A4EAEF19F0ECEF19F0F6EF19F052
:1033D800100E24182510D8B4F4EF19F0F6EF19F0F0
:1033E800F8EF19F0020E236E23501200226E070E1A
:1033F800016E0D0EC1EC18F020C0D9FF21C0DAFF14
:1034080022C0DFFF20C00DF021C00EF0010E0F6EAC
:1034180020C010F021C011F0240E126E000E136EA1
:103428000C0EBFEC0CF0236E2350D8A41EEF1AF03C
:1034380020EF1AF02AEF1AF0100E24182510D8B42D
:1034480028EF1AF02AEF1AF02CEF1AF0020E236E6A
:1034580023501200226E070E016E0D0E0DEC19F0AE
:1034680020C0D9FF21C0DAFF22C0DFFF20C00DF045
:1034780021C00EF0010E0F6E20C010F021C011F017
:10348800240E126E000E136E0C0E06EC0EF0236E58
:103498002350D8A452EF1AF054EF1AF05EEF1AF046
:1034A800100E24182510D8B45CEF1AF05EEF1AF04D
:1034B80060EF1AF0020E236E2350120054C058F029
:1034C80055C059F0000E0001616F000E606F80EF6B
:1034D8001AF052C03FF053C040F0580E416E000E33
:1034E800426E56C043F057C044F04DEC0FF03F50C9
:1034F800000160274050612358C0F6FF59C0F7FF0C
:103508000800F5500009D8A48CEF1AF08EEF1AF0D5
:103518006DEF1AF060C052F061C053F01200F20E65
:10352800F66E3A0EF76E000EF86E01EE14F010EE1D
:1035380014F00900F5CFEEFFE550E150FAE1B00EC6
:10354800F66E3B0EF76E000EF86E0900F5CFF4F03C
:1035580001EE00F0140EEE6AE806FDE10001F36BDF
:1035680000EE60F0800EEE6AE806FDE1000EF86EEF
:10357800000174EF06F0500E206E000E216E200E32
:103588000D6E000E0E6E020E0F6E220E106E000EE5
:10359800116EEBEC16F0800E0A6E080E22EC1DF090
:1035A800200E0D6E000E0E6E040E0F6E200E106EA5
:1035B800000E116E240E126E000E136E0C0E78ECB7
:1035C8000BF0080E0A6E080E22EC1DF01200500EC9
:1035D800206E000E216E200E0D6E000E0E6E020E75
:1035E8000F6E220E106E000E116E3BEC17F0800E5F
:1035F8000A6E080E2FEC1DF0200E0D6E000E0E6EDA
:10360800040E0F6E200E106E000E116E240E126E38
:10361800000E136E0C0EBFEC0CF0080E0A6E080EAE
:103628002FEC1DF01200500E206E000E216E200EA1
:103638000D6E000E0E6E020E0F6E220E106E000E34
:10364800116E8BEC17F0800E0A6E080E3CEC1DF024
:10365800200E0D6E000E0E6E040E0F6E200E106EF4
:10366800000E116E240E126E000E136E0C0E06EC78
:103678000EF0080E0A6E080E3CEC1DF01200280E23
:10368800C66E000EC56EC00E016EFC0E026E9B0E5D
:10369800036E010E046E0EC012F00FC013F010C0BE
:1036A80014F011C015F0020ED890123613361436E5
:1036B8001536E82E58EF1BF012C005F013C006F0BF
:1036C80014C007F015C008F048EC16F00104C86EE5
:1036D800000EC76E12005E0E0001E06F000EE16F73
:1036E8005AC0E2F05BC0E3F0000EE66F000EE56F33
:1036F800000EEC6F000EEB6FE20E526E000E536E72
:103708005CC054F05DC055F0E00E566E000E576E6A
:1037180062EC1AF00001E5515A24D96EE6515B209B
:10372800DA6E000EDF6E120001C003F002C004F072
:10373800A0EF1BF0014A022A01C0F6FF02C0F7FF02
:10374800F86A070EF76403D00800F55005D0F6CFE5
:10375800E1FFF7CFE2FFE7500009D8A4B6EF1BF06E
:10376800B8EF1BF09EEF1BF00350015C016E045094
:103778000258026E1200066E0001F3910650F00B1B
:103788007FEC1CF00638F00BF00B7FEC1CF0060405
:10379800D8B4D1EF1BF0D3EF1BF0DCEF1BF0020E17
:1037A8000618D8A4DAEF1BF0DCEF1BF0E4EF1BF0EF
:1037B800120E056E870EE82EFED7052EFCD700F0F8
:1037C80012009F0E096EFF0E0A6E07C00BF008C0AC
:1037D8000CF009500B260A500C220C5007E11A0E67
:1037E8000B5CD8B0FAEF1BF0FCEF1BF002EF1CF0FB
:1037F8005F0E0714076E086A06EF1CF007C007F093
:1038080008C008F01200000E106E000E0F6E18EFC0
:103818001CF00EC001F0026A0CC003F00DC004F0E9
:10382800A3EC12F00F4A102A0F500A24D96E105038
:103838000B20DA6EDF500E6E0E50D8A426EF1CF067
:1038480028EF1CF00DEF1CF012009F0E036EFF0E08
:10385800046E200E0110056E000E0210066E035055
:1038680005260450062206500AE11A0E055CD8A067
:1038780040EF1CF043EF1CF0010E44EF1CF0000E6B
:10388800016E026A12009F0E036EFF0E046E01C0E5
:1038980005F002C006F00350052604500622065023
:1038A8000AE11A0E055CD8A05CEF1CF05FEF1CF073
:1038B800010E60EF1CF0000E016E026A1200BF0ECE
:1038C800036EFF0E046E01C005F002C006F003503F
:1038D80005260450062206500AE11A0E055CD8A0F7
:1038E80078EF1CF07BEF1CF0010E7CEF1CF0000E53
:1038F800016E026A1200046E000E0001F3B1010E9F
:1039080004120450FB0B06EC1DF000D000D000D0D0
:103918000450040906EC1DF000D000D000D004507B
:10392800FB0B06EC1DF0E10EE82EFED71200026E2E
:10393800C7B4A1EF1CF0A3EF1CF09CEF1CF0C5CF9F
:1039480001F01F0E0116D8A4ACEF1CF0AEEF1CF06E
:103958009CEF1CF002C0C9FF1200C7B4B6EF1CF000
:10396800B8EF1CF0B1EF1CF0C5CF01F01F0E011627
:10397800D8A4C1EF1CF0C3EF1CF0B1EF1CF0C58454
:103988001200C7B4CAEF1CF0CCEF1CF0C5EF1CF056
:10399800C5CF01F01F0E0116D8A4D5EF1CF0D7EF44
:1039A8001CF0C5EF1CF0C580120028C020F029C00B
:1039B80021F03AEC15F020EE05F02850D9262950D0
:1039C800DA22000EDF6E120028C020F029C021F094
:1039D80094EC15F020EE05F02850D9262950DA226B
:1039E800000EDF6E120028C020F029C021F0EEEC96
:1039F80015F020EE05F02850D9262950DA22000EBD
:103A0800DF6E1200036EC5EC1CF00001F2519BEC56
:103A18001CF003500001F4119BEC1CF0B1EC1CF0FD
:103A280012000C6E0C506BEC13F00B6E0A50FF0A70
:103A38000B14016E0C5029EC18F012000C6E0C508F
:103A4800C8EC13F00B6E0A50FF0A0B14016E0C50F1
:103A580075EC18F012000C6E0C5025EC14F00B6E7F
:103A68000A50FF0A0B14016E0C50C1EC18F012003A
:103A78000C6E0C5082EC14F00B6E0A50FF0A0B14FB
:103A8800016E0C500DEC19F012000C6E0C506BEC22
:103A980013F00B6E0B500A10016E0C5029EC18F045
:103AA80012000C6E0C50C8EC13F00B6E0B500A1081
:103AB800016E0C5075EC18F012000C6E0C5025ECD1
:103AC80014F00B6E0B500A10016E0C50C1EC18F07C
:103AD80012000C6E0C5082EC14F00B6E0B500A1096
:103AE800016E0C500DEC19F0120068656C6C6F00DB
:103AF8000000000000000000000000000000140E9C
:103B08006BEC13F0030E0A6E140E49EC1DF0120054
:103B1800140EC8EC13F0030E0A6E140E55EC1DF0CB
:103B28001200140E25EC14F0030E0A6E140E61EC4C
:103B38001DF01200140E82EC14F0030E0A6E140E1F
:103B48006DEC1DF0120026C020F027C021F0260ED3
:103B5800C6EC19F0120026C020F027C021F0260E6E
:103B6800FAEC19F0120026C020F027C021F0260E2A
:103B78002EEC1AF01200030E0A6E140E15EC1DF04E
:103B88001200030E0A6E140E22EC1DF01200030E32
:103B98000A6E140E2FEC1DF01200030E0A6E140E9E
:093BA8003CEC1DF01200120008B3
:020000040020DA
:08000000FFFFFFFFFFFFFFFF00
:020000040030CA
:0E000000000C1E1EFF8181FF0FC00FE00F409D
:00000001FF
