:10000000A5EF03F00000000000EF00F0000000008A
:0A0010000000000000000000F3D71C
:10001C000450085E0550D8A0053C095E0650D8A0D7
:10002C00063C0A5E0750D8A0073C0B5E0336070E51
:10003C000C6E0334083609360A360B36045003A00E
:10004C000ED0085E0550D8A0053C095E0650D8A01D
:10005C00063C0A5E0750D8A0073C0B5E0DD0082664
:10006C000550D8B0053C09260650D8B0063C0A26E7
:10007C000750D8B0073C0B2603360C2EDAD70234C7
:10008C00083609360A360B36045003A00ED0085E2B
:10009C000550D8A0053C095E0650D8A0063C0A5E67
:1000AC000750D8A0073C0B5E0DD008260550D8B0E1
:1000BC00053C09260650D8B0063C0A260750D8B095
:1000CC00073C0B260236070E0C6E02340836093636
:1000DC000A360B36045002A00ED0085E0550D8A08C
:1000EC00053C095E0650D8A0063C0A5E0750D8A015
:1000FC00073C0B5E0DD008260550D8B0053C0926F0
:10010C000650D8B0063C0A260750D8B0073C0B2640
:10011C0002360C2EDAD70134083609360A360B367D
:10012C00045002A00ED0085E0550D8A0053C095E14
:10013C000650D8A0063C0A5E0750D8A0073C0B5EC0
:10014C000DD008260550D8B0053C09260650D8B06D
:10015C00063C0A260750D8B0073C0B260136070E82
:10016C000C6E0134083609360A360B36045001A0E1
:10017C000ED0085E0550D8A0053C095E0650D8A0EC
:10018C00063C0A5E0750D8A0073C0B5E0DD0082633
:10019C000550D8B0053C09260650D8B0063C0A26B6
:1001AC000750D8B0073C0B2601360C2EDAD700349A
:1001BC00083609360A360B36045001A00ED0085EFC
:1001CC000550D8A0053C095E0650D8A0063C0A5E36
:1001DC000750D8A0073C0B5E0DD008260550D8B0B0
:1001EC00053C09260650D8B0063C0A260750D8B064
:1001FC00073C0B260036070E0C6E00340836093609
:10020C000A360B36045000A00ED0085E0550D8A05C
:10021C00053C095E0650D8A0063C0A5E0750D8A0E3
:10022C00073C0B5E0DD008260550D8B0053C0926BE
:10023C000650D8B0063C0A260750D8B0073C0B260F
:10024C0000360C2EDAD700B00ED00450082605501C
:10025C00D8B0053C09260650D8B0063C0A260750F3
:08026C00D8B0073C0B2612007C
:100274000B1E0A1E091E081E082AD8B4092AD8B45F
:080284000A2AD8B40B2A12006B
:10028C000450000A12E10550000A0FE10650000A62
:10029C000CE10750000A09E1FF0E006EFF0E016E23
:1002AC00FF0E026E7F0E036E97D00C6A07BE0C2AEF
:1002BC000D6A0B6A0A6A096A086A03500210011077
:1002CC000010D8B484D0035007180E6E0EBE0D1E4D
:1002DC0007AE0BD0041E051E061E071E042AD8B43A
:1002EC00052AD8B4062AD8B4072A03AE0BD0001EB0
:1002FC00011E021E031E002AD8B4012AD8B4022AF9
:10030C00D8B4032A035007100E6E0EBE1CD080DE2C
:10031C000CBE36D00DAE5BD0001E011E021E031E9D
:10032C00002AD8B4012AD8B4022AD8B4032A081E49
:10033C00091E0A1E0B1E082AD8B4092AD8B40A2A88
:10034C00D8B40B2A44D007AE15D003BE0DD0035041
:10035C000B6E02500A6E0150096E0050086E036A53
:10036C00026A016A006AD6D7036A026A016A006AE5
:10037C00002A000C031E021E011E001E0C8EC7D785
:10038C00082AD8B4092AD8B40A2AD8B40B2A04509B
:10039C00085CD8A4BFD70550095CD8A4BBD70650BD
:1003AC000A5CD8A4B7D707500B5CD8A4B3D70B6A98
:1003BC000A6A096A086A002AD8B4012AD8B4022A3F
:1003CC00D8B4032A03AEA6D70E6A0E88FF0C0E6AA9
:0A03DC000CA001D049DF000F120051
:1003E600A00E006E0F0E016E000E026E036E12005E
:1003F600220E0C6E086A096A0A6A0B6A0C06D8B4E1
:100406001FD0D8900B320A32093208320332023238
:1004160001320032D8A0F2D70C06D8B409D0045065
:1004260008260550092206500A2207500B22EAD751
:10043600045008260550092206500A2207500B22AE
:020446001200A2
:100448003806380638C001F038060150000803E2C3
:1004580000000000F7D700000000000000000000C6
:02046800120080
:10046A0038C01AF039C01BF03AC000F0010E026E13
:10047A00005004E002360290FF0FFBD702C032F0B0
:10048A00021C356E3BC001F0010E006E015004E003
:10049A0000360090FF0FFBD700C01EF0001E00C000
:1004AA001DF0120E3824E96E000E3920EA6E025051
:1004BA00EF120050EF161C6A4052D8A41C1E120EEE
:1004CA00E95E1C50000A03E01D50EF1602D01E50D0
:1004DA00EF1284DFE80E046E030E056E000E066E40
:1004EA00076E84DF00C04BF001C04CF002C04DF033
:1004FA0003C04EF04BC041F04CC042F04DC043F037
:10050A004EC044F03CC000F03DC001F03EC002F0D5
:10051A003FC003F00036009001360236033600363B
:10052A0000900136023603360A0E046E000E056E7E
:10053A00066E076E5BDF00C045F001C046F002C0E0
:10054A0047F003C048F000C004F001C005F002C043
:10055A0006F003C007F04BC000F04CC001F04DC0DC
:10056A0002F04EC003F08DDE00C049F001C04AF02F
:10057A0001C004F0056A0450051003E0020E006E83
:10058A0050D049C033F045C004F046C005F047C01A
:10059A0006F048C007F041C000F042C001F043C075
:1005AA0002F044C003F06DDE08C000F009C001F09B
:1005BA000AC002F00BC003F000C041F001C042F0D3
:1005CA0002C043F003C044F045C005F046C006F03F
:1005DA0047C007F048C008F0083207320632053231
:1005EA00089E08BC088E800E0818046E800E031838
:1005FA00045C08E10250075C05E10150065C02E177
:10060A000050055CD8A0332A33C001F00132019EA4
:10061A0001C034F0070E015C03E2010E006E01D046
:04062A00006A120050
:10062E00AECF01F0ABA202D0AB98AB8801C000F008
:02063E001200A8
:10064000820E386E0F0E396E020E3A6E010E3B6E40
:10065000800E3C6E250E3D6E000E3E6E3F6E406A73
:0406600004DF1200A1
:060664009498949A120024
:10066A000900F5CFE6FF0006FBE10106F9E11200F9
:10067A00010E376E1C50361A1AC0E9FF1BC0EAFF7A
:10068A001C50000A03E01E50EF1202D01D50EF1654
:10069A0033C038F0D4DE361E375216E037503614DF
:1006AA00006E03E11E50EF1202D01D50EF163736CE
:1006BA003790020E335C386EC2DE00000000000084
:1006CA00000000000000E8D71C50000A03E01D509B
:1006DA00EF1602D01E50EF1233C038F0B0DE12000F
:0A06EA00000E9EBA010E006E120011
:1006F400FF0E266EFF0E276EFF0E286EFF0E296E6C
:100704002E0E226E060E236E000E246E000E256E33
:10071400EA0E2E6E060E2F6E000E306E000E316E37
:10072400FF0E2A6EFF0E2B6E000E2C6E000E2D6E29
:10073400AC8A900EAB6E948E949C9EAA03D0AECFDE
:0607440000F0FBD71200DB
:10074A00156A166A176A186A196A87DF74DFB88623
:10075A00B06A670EAF6EAC84C8DF820E0C6EDD0E17
:10076A000D6E0D2EFED70C2EFCD700000000B8DF50
:10077A000052D8B498D056DF00C017F00050540A7F
:10078A0012E1800E1618006E800E005C02E1030E64
:10079A00155C09E21F0E1524E16E000E1620E26EAA
:1007AA0017C0E6FF7ED01750520A12E1800E1618C3
:1007BA00006E800E005C02E1030E155C09E21F0E5A
:1007CA001524E16E000E1620E26E17C0E6FF69D00E
:1007DA001750470A12E1800E1618006E800E005C50
:1007EA0002E1030E155C09E21F0E1524E16E000EEC
:1007FA001620E26E17C0E6FF54D017501A0A09E114
:10080A001F6A206A216AFF0E156EFF0E166E186A9D
:10081A00196A1F50520A12E12050520A0FE1215060
:10082A00520A0CE1000E191802E1000E181806E12E
:10083A008B988B9A010E186E000E196E1F50540A6F
:10084A0012E12050540A0FE12150540A0CE1000E23
:10085A00191802E1000E181806E18B888B9A020E0D
:10086A00186E000E196E1F50470A12E12050470AEF
:10087A000FE12150470A0CE1000E191802E1000E9F
:10088A00181806E18B988B8A030E186E000E196EE3
:10089A00000E191802E1000E181803E017C036F00E
:0A08AA00E7DE154A162A63D7FFD7D0
:020000040030CA
:0E000000000C1F1EFF8181FF0FC00FE00F409C
:00000001FF
