:04000000DBEF09F039
:10000800F2A20AD0010E176E000E186E156A166A53
:0A00180000017F4B802BF2921100D3
:100022000450085E0550D8A0053C095E0650D8A0D1
:10003200063C0A5E0750D8A0073C0B5E0336070E4B
:100042000C6E0334083609360A360B36045003A008
:100052000ED0085E0550D8A0053C095E0650D8A017
:10006200063C0A5E0750D8A0073C0B5E0DD008265E
:100072000550D8B0053C09260650D8B0063C0A26E1
:100082000750D8B0073C0B2603360C2EDAD70234C1
:10009200083609360A360B36045003A00ED0085E25
:1000A2000550D8A0053C095E0650D8A0063C0A5E61
:1000B2000750D8A0073C0B5E0DD008260550D8B0DB
:1000C200053C09260650D8B0063C0A260750D8B08F
:1000D200073C0B260236070E0C6E02340836093630
:1000E2000A360B36045002A00ED0085E0550D8A086
:1000F200053C095E0650D8A0063C0A5E0750D8A00F
:10010200073C0B5E0DD008260550D8B0053C0926E9
:100112000650D8B0063C0A260750D8B0073C0B263A
:1001220002360C2EDAD70134083609360A360B3677
:10013200045002A00ED0085E0550D8A0053C095E0E
:100142000650D8A0063C0A5E0750D8A0073C0B5EBA
:100152000DD008260550D8B0053C09260650D8B067
:10016200063C0A260750D8B0073C0B260136070E7C
:100172000C6E0134083609360A360B36045001A0DB
:100182000ED0085E0550D8A0053C095E0650D8A0E6
:10019200063C0A5E0750D8A0073C0B5E0DD008262D
:1001A2000550D8B0053C09260650D8B0063C0A26B0
:1001B2000750D8B0073C0B2601360C2EDAD7003494
:1001C200083609360A360B36045001A00ED0085EF6
:1001D2000550D8A0053C095E0650D8A0063C0A5E30
:1001E2000750D8A0073C0B5E0DD008260550D8B0AA
:1001F200053C09260650D8B0063C0A260750D8B05E
:10020200073C0B260036070E0C6E00340836093602
:100212000A360B36045000A00ED0085E0550D8A056
:10022200053C095E0650D8A0063C0A5E0750D8A0DD
:10023200073C0B5E0DD008260550D8B0053C0926B8
:100242000650D8B0063C0A260750D8B0073C0B2609
:1002520000360C2EDAD700B00ED004500826055016
:10026200D8B0053C09260650D8B0063C0A260750ED
:08027200D8B0073C0B26120076
:10027A000B1E0A1E091E081E082AD8B4092AD8B459
:08028A000A2AD8B40B2A120065
:1002920007014007400740C701F04007015000082E
:1002A20003E200000000F7D7000000000000000099
:0402B2000000120036
:1002B6003BC702F03CC703F03EC700F03FC701F062
:1002C600010E07013E5F000E3F5B0050011009E082
:1002D60002C0E1FF03C0E2FF3DC7E6FF024A032A70
:0C02E600EBD73BC700F03CC701F0120052
:1002F200010E07013C6F0401FB5107013B1BF5C4D2
:10030200E9FFF6C4EAFF0401FB51000A03E0F451DD
:10031200EF1202D0F851EF16F7C440F7B9DF3B1FD6
:100322003C531BE03C513B15006E04E10401F451C7
:10033200EF1203D00401F851EF1607013C373C914C
:10034200020E0401F75D0701406FA2DF000000000A
:100352000000000000000000E3D70401FB51000A86
:1003620003E0F851EF1602D0F451EF12F7C440F750
:040372008FDF120007
:10037600A00E006E0F0E016E000E026E036E1200CE
:10038600220E0C6E086A096A0A6A0B6A0C06D8B451
:100396001FD0D8900B320A320932083203320232A9
:1003A60001320032D8A0F2D70C06D8B409D00450D6
:1003B60008260550092206500A2207500B22EAD7C2
:1003C600045008260550092206500A2207500B221F
:0203D600120013
:1003D8000450000A12E10550000A0FE10650000A15
:1003E8000CE10750000A09E1FF0E006EFF0E016ED6
:1003F800FF0E026E7F0E036E97D00C6A07BE0C2AA2
:100408000D6A0B6A0A6A096A086A03500210011029
:100418000010D8B484D0035007180E6E0EBE0D1EFF
:1004280007AE0BD0041E051E061E071E042AD8B4EC
:10043800052AD8B4062AD8B4072A03AE0BD0001E62
:10044800011E021E031E002AD8B4012AD8B4022AAB
:10045800D8B4032A035007100E6E0EBE1CD0DDDD83
:100468000CBE36D00DAE5BD0001E011E021E031E50
:10047800002AD8B4012AD8B4022AD8B4032A081EFC
:10048800091E0A1E0B1E082AD8B4092AD8B40A2A3B
:10049800D8B40B2A44D007AE15D003BE0DD00350F4
:1004A8000B6E02500A6E0150096E0050086E036A06
:1004B800026A016A006AD6D7036A026A016A006A98
:1004C800002A000C031E021E011E001E0C8EC7D738
:1004D800082AD8B4092AD8B40A2AD8B40B2A04504E
:1004E800085CD8A4BFD70550095CD8A4BBD7065070
:1004F8000A5CD8A4B7D707500B5CD8A4B3D70B6A4B
:100508000A6A096A086A002AD8B4012AD8B4022AF1
:10051800D8B4032A03AEA6D70E6A0E88FF0C0E6A5B
:0A0528000CA001D0A6DE000F1200A7
:1005320024C7E9FF25C7EAFFEE520AE024C7E9FF14
:1005420025C7EAFFEECF3BF7D3DE244B252BF0D7AE
:0A05520007010D0E3B6FCCDE120016
:10055C00F50E07013B6F030E3C6F3D6BFF0E3E6FBC
:10056C00000E3F6FA2DE290E3B6F060E3C6F3D6BFB
:10057C00320E3E6F000E3F6F98DE5B0E3B6F060E29
:10058C003C6F3D6B320E3E6F000E3F6F8EDEC50E24
:10059C003B6F050E3C6F3D6B320E3E6F000E3F6F96
:1005AC0084DEF70E3B6F050E3C6F3D6B320E3E6FDB
:1005BC00000E3F6F7ADEBF0E3B6F060E3C6F3D6B3D
:1005CC00320E3E6F000E3F6F70DE8D0E3B6F060ECF
:1005DC003C6F3D6B320E3E6F000E3F6F66DEF10ED0
:1005EC003B6F060E3C6F3D6B320E3E6F000E3F6F45
:1005FC005CDE930E3B6F050E3C6F3D6B320E3E6F17
:10060C00000E3F6F52DE2F0E3B6F050E3C6F3D6BA5
:10061C00320E3E6F000E3F6F48DE610E3B6F050ED3
:10062C003C6F3D6B320E3E6F000E3F6F3EDEFD0E9B
:10063C003B6F040E3C6F3D6B320E3E6F000E3F6FF6
:10064C0034DE1C0E3B6F030E3C6F3D6B320E3E6F67
:10065C00000E3F6F2ADEB80E3B6F020E3C6F3D6BF7
:10066C00320E3E6F000E3F6F20DEEA0E3B6F020E25
:10067C003C6F3D6B320E3E6F000E3F6F16DE4E0E22
:10068C003B6F030E3C6F3D6B320E3E6F000E3F6FA7
:10069C000CDE800E3B6F030E3C6F3D6B320E3E6FDB
:1006AC00000E3F6F02DEB20E3B6F030E3C6F3D6BD4
:1006BC00320E3E6F000E3F6FF8DD0201676B686B08
:0E06CC00696B6A6B6B6B6C6B176A186A1200B5
:1006DA00320E0301ED6F070EEE6F240EEF6F070E59
:1006EA00F06F4A0EF16F120EF26F000EF36F000EEA
:1006FA00F46F400EE56F120EE66F000EE76F000E04
:10070A00E86FFF0EE96FFF0EEA6F000EEB6F000E47
:10071A00EC6FAC8A900EAB6E948E949C9EAA03D01A
:08072A00AECF00F0FBD7120076
:0E073200ACB202D00000FCD724C7ADFF12000D
:100740001C0E07013B6FD5DD2E0E3B6FD2DD1D0E5B
:100750003B6FCFDD4C0E3B6FCCDD460E3B6FC9DDF2
:060760003B6BC7DD120037
:1007660024C7E9FF25C7EAFFEE520AE024C7E9FFDE
:1007760025C7EAFFEECF3BF7B9DD244B252BF0D793
:0207860012005F
:1007880024C7F5F425C7F6F426C700F0010E026E5B
:10079800005004E002360290FF0FFBD702C0FCF4C1
:1007A800021C0401F96F27C701F0010E006E015009
:1007B80004E000360090FF0FFBD700C0F4F4001EE1
:1007C80000C0F8F4120E07012425E96E000E252159
:1007D800EA6E0250EF120050EF160401FB6B07019E
:1007E8002C5302E00401FB1F0401120EE95EFB51C9
:1007F800000A03E0F851EF1602D0F451EF12B7DD0A
:10080800E80E046E030E056E000E066E076EB7DD69
:1008180000C037F701C038F702C039F703C03AF70C
:1008280037C72DF738C72EF739C72FF73AC730F72C
:1008380028C700F029C701F02AC702F02BC703F028
:100848000036009001360236033600360090013635
:10085800023603360A0E046E000E056E066E076E2B
:100868008EDD00C031F701C032F702C033F703C094
:1008780034F700C004F001C005F002C006F003C060
:1008880007F037C700F038C701F039C702F03AC798
:1008980003F09EDD00C035F701C036F701C004F053
:1008A800056A0450051003E0020E006E51D035C7EA
:1008B800F7F431C704F032C705F033C706F034C780
:1008C80007F02DC700F02EC701F02FC702F030C780
:1008D80003F07EDD08C000F009C001F00AC002F094
:1008E8000BC003F000C02DF701C02EF702C02FF790
:1008F80003C030F731C705F032C706F033C707F039
:1009080034C708F00832073206320532089E08BCA0
:10091800088E800E0818046E800E0318045C08E127
:100928000250075C05E10150065C02E10050055CDD
:1009380002E20401F72BF7C401F00132019E01C065
:10094800FAF4070E015C03E2010E006E01D0006AA2
:0209580012008B
:10095A00800E02016C19006E800E6A19005C02E1B9
:10096A0069516B5D63E3F50E6925E96E030E6A2131
:10097A00EA6EEE507C0A05E1674B682B6D6B6E6B75
:10098A0052D0000E681902E1010E67190EE11C0E21
:10099A006D25E16E030E6E21E26EF50E6925E96E94
:1009AA00030E6A21EA6EEECFE6FF000E681902E135
:1009BA00020E67190EE1FD0E6D25E16E040E6E2121
:1009CA00E26EF50E6925E96E030E6A21EA6EEECF34
:1009DA00E6FF000E681902E1030E67190EE1EA0E3E
:1009EA006D25E16E020E6E21E26EF50E6925E96E45
:1009FA00030E6A21EA6EEECFE6FF000E681902E1E5
:100A0A00040E67190EE1B20E6D25E16E030E6E211A
:100A1A00E26EF50E6925E96E030E6A21EA6EEECFE3
:0E0A2A00E6FF6D4B6E2B694B6A2B92D71200C4
:100A380083DED30E246F010E256F91DE290E070188
:100A4800246F060E256F71DDBC0E246F010E256F15
:100A580086DE5B0E0701246F060E256F66DDC60E67
:100A6800246F010E256F7BDE1C0E0701246F030E19
:100A7800256F5BDDEA0E246F000E256F70DEB80E61
:100A88000701246F020E256F6ADEFA0E0701246F34
:100A9800000E256F64DEEA0E0701246F020E256F33
:100AA80044DDDC0E246F000E256F59DEF70E0701BA
:100AB800246F050E256F39DDB40E246F000E256FE7
:100AC8004EDEBF0E0701246F060E256F2EDDC50E04
:100AD800246F000E256F43DE610E0701246F050E9B
:100AE800256F23DDFE0E246F000E256F38DEFD0E08
:100AF8000701246F040E256F18DD150E246F010EF3
:100B0800256F2DDE4E0E0701246F030E256F0DDDB8
:100B1800250E246F010E256F22DE800E0701246F3B
:100B2800030E256F02DD100E246F010E256F17DEF0
:020B38001200A9
:100B3A00800E02016C19006E800E6A19005C02E1D7
:100B4A0069516B5DD8A0EFD0F50E6925E96E030EE9
:100B5A006A21EA6EEE507C0A05E1674B682B6D6BE1
:100B6A006E6BDED0000E681902E1010E67190EE104
:100B7A00290E6D25E16E060E6E21E26EF50E6925CF
:100B8A00E96E030E6A21EA6EEECFE6FF000E6819DF
:100B9A0002E1020E67190EE15B0E6D25E16E060E8B
:100BAA006E21E26EF50E6925E96E030E6A21EA6E80
:100BBA00EECFE6FF000E681902E1030E67190EE197
:100BCA001C0E6D25E16E030E6E21E26EF50E69258F
:100BDA00E96E030E6A21EA6EEECFE6FF000E68198F
:100BEA0002E1040E67190EE1B80E6D25E16E020EE0
:100BFA006E21E26EF50E6925E96E030E6A21EA6E30
:100C0A00EECFE6FF000E681902E1050E67190EE144
:100C1A00EA0E6D25E16E020E6E21E26EF50E692571
:100C2A00E96E030E6A21EA6EEECFE6FF000E68193E
:100C3A0002E1060E67190EE1F70E6D25E16E050E4B
:100C4A006E21E26EF50E6925E96E030E6A21EA6EDF
:100C5A00EECFE6FF000E681902E1070E67190EE1F2
:100C6A00BF0E6D25E16E060E6E21E26EF50E692548
:100C7A00E96E030E6A21EA6EEECFE6FF000E6819EE
:100C8A0002E1080E67190EE1610E6D25E16E050E8F
:100C9A006E21E26EF50E6925E96E030E6A21EA6E8F
:100CAA00EECFE6FF000E681902E1090E67190EE1A0
:100CBA00FD0E6D25E16E040E6E21E26EF50E6925BC
:100CCA00E96E030E6A21EA6EEECFE6FF000E68199E
:100CDA0002E10A0E67190EE14E0E6D25E16E030E52
:100CEA006E21E26EF50E6925E96E030E6A21EA6E3F
:100CFA00EECFE6FF000E681902E10B0E67190EE14E
:100D0A00800E6D25E16E030E6E21E26EF50E6925E9
:100D1A00E96E030E6A21EA6EEECFE6FF6D4B6E2B8B
:080D2A00694B6A2B05D712008A
:100D32000900F5CFE6FF0006FBE10106F9E112002A
:100D42009380959095928C808C92B886B06A670E4B
:100D5200AF6EAC84C1DC820E0701246F0F0E256FCB
:100D6200020E266F010E276F800E286F250E296F47
:100D7200000E2A6F2B6F2C6B06DD820E0C6EDD0EC1
:100D82000D6E0D2EFED70C2EFCD7000000000D0EAE
:100D92000701246F010E256F99EC02F0030E0B6E12
:100DA2008A0E0C6E550E0D6E0D2EFED70C2EFCD734
:100DB2000B2EFAD700000000220E246F000E256FC2
:100DC20099EC02F0030E0B6E8A0E0C6E550E0D6E30
:100DD2000D2EFED70C2EFCD70B2EFAD700000000EA
:100DE200190E246F000E256F99EC02F0030E0B6EA4
:100DF2008A0E0C6E550E0D6E0D2EFED70C2EFCD7E4
:100E02000B2EFAD7000000002C0E246F000E256F67
:100E120099EC02F0030E0B6E8A0E0C6E550E0D6EDF
:100E22000D2EFED70C2EFCD70B2EFAD70000000099
:0C0E3200AEEC02F0F292F288F28E120098
:100E3E008C0E0701246F010E256F99EC02F0060E41
:100E4E000B6E130E0C6EAD0E0D6E0D2EFED70C2E00
:100E5E00FCD70B2EFAD700000000960E246F010E61
:100E6E00256F7ADCB20E0701246F030E256F74DC3A
:100E7E008A0E0701246F010E256F99EC02F0060E03
:100E8E000B6E130E0C6EAD0E0D6E0D2EFED70C2EC0
:100E9E00FCD70B2EFAD700000000310E246F010E86
:100EAE00256F5ADC1C0E0701246F030E256F54DCD0
:100EBE00640E0701246F010E256F4EDCFD0E070137
:100ECE00246F040E256F48DCA00E0701246F010E5F
:100EDE00256F42DCEA0E0701246F020E256F3CDC03
:100EEE00E20E0701246F010E256F36DC2B0E070173
:100EFE00246F020E256F30DC1A0E07013B6F79EC62
:100F0E0001F0060E0B6E130E0C6EAD0E0D6E0D2E49
:100F1E00FED70C2EFCD70B2EFAD7000000001200C5
:100F2E00800E02016C19006E800E6A19005C02E1DF
:100F3E0069516B5DD8A0EFD0F50E6925E96E030EF1
:100F4E006A21EA6EEE507C0A05E1674B682B6D6BE9
:100F5E006E6BDED0000E681902E1010E67190EE10C
:100F6E00290E6D25E16E060E6E21E26EF50E6925D7
:100F7E00E96E030E6A21EA6EEECFE6FF000E6819E7
:100F8E0002E1020E67190EE15B0E6D25E16E060E93
:100F9E006E21E26EF50E6925E96E030E6A21EA6E88
:100FAE00EECFE6FF000E681902E1030E67190EE19F
:100FBE00C50E6D25E16E050E6E21E26EF50E6925EC
:100FCE00E96E030E6A21EA6EEECFE6FF000E681997
:100FDE0002E1040E67190EE1F70E6D25E16E050EA6
:100FEE006E21E26EF50E6925E96E030E6A21EA6E38
:100FFE00EECFE6FF000E681902E1050E67190EE14D
:10100E00BF0E6D25E16E060E6E21E26EF50E6925A0
:10101E00E96E030E6A21EA6EEECFE6FF000E681946
:10102E0002E1060E67190EE18D0E6D25E16E060EBC
:10103E006E21E26EF50E6925E96E030E6A21EA6EE7
:10104E00EECFE6FF000E681902E1070E67190EE1FA
:10105E00F10E6D25E16E060E6E21E26EF50E69251E
:10106E00E96E030E6A21EA6EEECFE6FF000E6819F6
:10107E0002E1080E67190EE1930E6D25E16E050E65
:10108E006E21E26EF50E6925E96E030E6A21EA6E97
:10109E00EECFE6FF000E681902E1090E67190EE1A8
:1010AE002F0E6D25E16E050E6E21E26EF50E692591
:1010BE00E96E030E6A21EA6EEECFE6FF000E6819A6
:1010CE0002E10A0E67190EE1610E6D25E16E050E45
:1010DE006E21E26EF50E6925E96E030E6A21EA6E47
:1010EE00EECFE6FF000E681902E10B0E67190EE156
:1010FE00FD0E6D25E16E040E6E21E26EF50E692574
:10110E00E96E030E6A21EA6EEECFE6FF6D4B6E2B93
:08111E00694B6A2B05D7120092
:1011260007012351310A0FE1020E176E000E186EE9
:101136008C908C92410E0C6EEE0E0D6E0D2EFED71F
:101146000C2EFCD700002351320A0FE1030E176E56
:10115600000E186E8C908C92410E0C6EEE0E0D6E7B
:101166000D2EFED70C2EFCD700002351330A0FE1BB
:10117600040E176E000E186E8C808C92410E0C6E4B
:10118600EE0E0D6E0D2EFED70C2EFCD700001200B3
:10119600000E0001801902E1140E7F1906E1310EDE
:1011A6000701246F99EC03F040D0000E000180196E
:1011B60002E1320E7F1906E1320E0701246F99EC27
:1011C60003F033D0000E0001801902E1640E7F198E
:1011D60006E1330E0701246F99EC03F026D0000ECA
:1011E6000001801902E1040E7F1906E1340E0701A1
:1011F600246F99EC03F019D0000E0001801902E16A
:10120600050E7F1906E1350E0701246F99EC03F0F0
:101216000CD0000E0001801902E1060E7F1905E1CF
:10122600360E0701246F99EC03F0156A166A000161
:0A1236007F6B806B176A186A1200C4
:0A124000000E9EBA010E006E1200AF
:10124A00AECF01F0ABA202D0AB98AB8801C000F0E0
:02125A00120080
:10125C00A0EC03F06F0E246F020E256FB3EC03F0BD
:10126C00290E0701246F060E256F99EC02F09D0ED6
:10127C00246F020E256FB3EC03F05B0E0701246F95
:10128C00060E256F99EC02F0A70E246F020E256F47
:10129C00B3EC03F0C50E0701246F050E256F99EC16
:1012AC0002F07E0E246F020E256FB3EC03F0F70EE6
:1012BC000701246F050E256F99EC02F08C0E246F3C
:1012CC00020E256FB3EC03F0BF0E0701246F060E60
:1012DC00256F99EC02F05D0E246F000E256FB3ECB8
:1012EC0003F08D0E0701246F060E256FB3EC03F08F
:1012FC00700E0701246F000E256F99EC02F04B0E57
:10130C00246F000E256FB3EC03F0F10E0701246F70
:10131C00060E256FB3EC03F0360E0701246F000E9A
:10132C00256F99EC02F03B0E246F000E256FB3EC89
:10133C0003F0930E0701246F050E256FB3EC03F039
:10134C00750E0701246F000E256F99EC02F0920EBA
:10135C00246F000E256FB3EC03F02F0E0701246FE2
:10136C00050E256F99EC02F0A20E246F000E256F6E
:10137C00B3EC03F0610E0701246F050E256F99EC99
:10138C0002F0810E246F000E256FB3EC03F0FD0EFE
:10139C000701246F040E256F99EC02F07A0E246F6E
:0A13AC00000E256FB3EC03F01200F1
:1013B6007DEC0BF0C3DC41DF005215E043DF00C0DB
:1013C600E4F300500D0A04E1F5C323F7A9DE0BD0C0
:1013D600F50E02016B25E16E030E6C21E26EE4C38D
:1013E600E6FF6B4B6C2B000E181802E1010E171866
:1013F6000AE1154A162A1650C30A02E1500E1518BC
:1014060001E1C6DE23D0000E181802E1020E1718FD
:1014160005E18ADD20DFAEEC02F018D0000E1818C8
:1014260002E1030E171807E19DEC05F01CEC05F030
:10143600AEEC02F00BD0000E181802E1040E1718DD
:1014460005E1ADEC04F0F8DCAEEC02F0B4D7FFD762
:1016FA0010EE15F0A30E006E030E016E560EF66E76
:0E170A00140EF76E000EF86E99EC06F0120049
:02145600000094
:02145800000092
:09145A0041542B435245473F0069
:0A14630041542B435245473D32002F
:0A146D0041542B435245473D310026
:05147700204B57480066
:10147C00546F74616C20436F6E73756D653A200008
:10148C0050726573656E742052656164696E673A5B
:02149C0020002E
:10149E0050726576696F75732052656164696E6707
:0314AE003A2000E1
:0514B100204B5748002C
:0514B600204B57480027
:0514BB000D0D0D0D00F8
:0214C00000002A
:1014C200546F74616C20416D6F756E743A205020B8
:0114D2000019
:1014D300526F6F6D20416D6F756E743A205020000E
:1014E300496E6469762E20416D6F756E743A205093
:0214F3002000D7
:1014F5005761746572204368617267653A205020B0
:0115050000E5
:10150600496E646976696475616C20436F6E7375A4
:071516006D653A2050200032
:0E151D00526F6F6D20526174653A20502000AD
:10152B00506572696F6420436F76657265643A002B
:04153B00202D20003F
:0F153F0044756520416D6F756E743A2050200021
:03154E0041540005
:051551000D0D0D0D0061
:101556005061696420416D6F756E743A20502000A9
:0C1566004461746520506169643A200003
:1015720048656C6C6F2120596F75722053746174C9
:10158200656D656E74206F66204163636F756E745E
:1015920020666F7220746865206D6F6E7468206FAC
:0315A200662000C0
:1015A500206973206E6F77206176616C6961626C6A
:1015B500652E2054686520616D6F756E74206475A5
:0615C5006520697320009F
:0215CB002200FC
:0A15CD0041542B434D47463D3100C9
:0A15D70041542B434D47533D2200C1
:1015E100207065736F7320616E6420746865206478
:0C15F1007565206461746520697320003A
:0A15FD00526F6F6D2049443A200040
:0D16070042696C6C204D6F6E74683A2000D3
:0F1614000D54656E616E74204E616D653A200055
:101623002E20546F2061766F696420616E79206982
:10163300737375652C20706C65617365206D616BC8
:1016430065207375726520746F20706179206265FF
:10165300666F7265206F72206F6E207468652064F8
:09166300756520646174652E00B8
:10166C0020596F752063616E2076697369742074DC
:10167C00686520456E646F726D206170706C696373
:10168C006174696F6E20666F72206D6F7265206970
:0C169C006E666F726D6174696F6E2E00D7
:0216A800000040
:0216AA0000003E
:0216AC0000003C
:0216AE0000003A
:0F16B0000D54656E616E74204E616D653A2000B9
:0E16BF00526F6F6D20526174653A205020000A
:1016CD005761746572204368617267653A205020D6
:0116DD00000C
:0A16DE00526F6F6D2049443A20005E
:1016E800506572696F6420436F76657265643A204D
:0116F80000F1
:020000040030CA
:0E000000000C1F1EFF8181FF0FC00FE00F409C
:00000001FF
