:1000000071EF00F00000000000EF00F000000000C1
:0A0010000000000000000000F3D71C
:0E001C00ACB202D00000FCD774C0ADFF1200E1
:10002A0072C0E9FF73C0EAFFEE520BE072C0E9FF4B
:10003A0073C0EAFFEECF74F0ECDF0001724B732B52
:0C004A00EFD700010D0E746FE4DF120010
:1000560072C0E9FF73C0EAFFEE520BE072C0E9FF1F
:1000660073C0EAFFEECF74F0D6DF0001724B732B3C
:04007600EFD71200AE
:10007A000900F5CFE6FF0006FBE10106F9E11200EF
:10008A001C0E0001626F000E636F740E646F000E27
:10009A00656FFF0E6A6FFF0E6B6F000E6C6F000EBE
:1000AA006D6FFF0E666FFF0E676F000E686F000EB2
:1000BA00696FFF0E6E6FFF0E6F6F000E706F000E8E
:1000CA00716FAC8A900EAB6E948E949C9EAA03D0EC
:0800DA00AECF00F0FBD71200CD
:1000E20009EC01F0B886B06A670EAF6EAC84CCDF63
:1000F200CB0E0B6EEC0E0C6E840E0D6E0D2EFED71B
:100102000C2EFCD70B2EFAD700000001490E726F9D
:10011200000E736F89DF0B0E0B6E260E0C6E5D0EDA
:100122000D6E0D2EFED70C2EFCD70B2EFAD700002B
:1001320000003F0E0001726F000E736F8BDF560ED0
:100142000001726F000E736F85DF530E0001726F34
:10015200000E736F7FDF0B0E0B6E260E0C6E5D0EA4
:100162000D6E0D2EFED70C2EFCD70B2EFAD70000EB
:100172000000150E0001726F000E736F55DF0B0E3B
:100182000B6E260E0C6E5D0E0D6E0D2EFED70C2E16
:10019200FCD70B2EFAD7000000001A0E0001746F74
:1001A2003CDF480E0B6E060E0C6E9F0E0D6E0D2E72
:1001B200FED70C2EFCD70B2EFAD700000000A5D7D5
:0201C200FFD765
:1002120010EE15F04D0E006E010E016EC40EF66E5C
:0E022200010EF76E000EF86E3DEC00F01200BB
:1001C40054657374696E672066726F6D204A6F732D
:1001D4006875612C2052616368656C2C20616E64C3
:0A01E40020416E67656C69636100DD
:0A01EE0041542B434D47533D2200BE
:0A01F80041542B434D47463D3100B2
:03020200220D00CA
:0C020500303936313436383034303600B1
:020000040030CA
:0E000000000C1F1EFF8381FF0FC00FE00F409A
:00000001FF
