:04000000A0EF03F07A
:1000080000C015F0E1CF16F0E2CF17F00001716BD8
:100018009EAA22D09E9A356A406AAECF71F071517D
:10002800230A02E11D6A01D01D2A380EE16E000E76
:10003800E26E1D50E126D8B0E22A71C0E6FF3A50C0
:10004800460A03E13A6A366A37803A504E0A04E1B2
:100058003A6A010E366E378015C000F016C0E1FF0F
:0600680017C0E2FF1100C9
:0A006E00030E0D6E0D2EFED71200DA
:0A007800070E0D6E0D2EFED71200CC
:040082000000120068
:10008600800E0001706F6F1F70531FE070516F1567
:10009600016E0152010ED8A4000E006E00B002D00F
:1000A600809401D08084EADFE9DF8082DDDF705151
:1000B6006F1380B604D0701D006E00506F17D4DF2A
:1000C6008092D7DF7033709FDFD76FC000F01200C9
:1000D600800E0001706F6F1F705316E070516F1520
:1000E600016E0152010ED8A4000E006E00B002D0BF
:1000F600809401D08084C2DFC1DF8082BADF809223
:0A010600B8DF7033709FE8D71200D5
:1001100080906DC06FF000016F376F917E0E6F178A
:0C0120006F8FD9DF6F6BAFDF80801200A3
:10012C0080906DC06FF000016F376F917E0E6F176E
:0C013C00CCDF6EC06FF0C9DF80801200C5
:100148006BC06DF0E1DF6BC06DF06C1D016E01508E
:0801580000146E6FE7DF1200D6
:100160006BC06DF0D5DF6BC06DF06C5100106E6F21
:04017000DDDF1200BD
:10017400F00E5914026E02C059F002C001F00132AF
:10018400019E0132019E0132019E0132019E01C095
:1001940059F00A0E015C04E2300E5924006E03D0BB
:0801A400370E5924006E120011
:1001AC000F0E5914016E01C059F00A0E015C04E2E5
:1001BC00300E5924006E03D0370E5924006E1200F5
:1001CC00020E5D6E5E6A5F6A0BD0120E5E6E100ED2
:1001DC005F6E0ED0770E5E6E300E5F6E09D008D05B
:1001EC00000161510E0AF1E061510C0AF3E0F7D7FE
:1001FC000001020E6D6F800E5E106E6F91DF040EAB
:10020C006B6F800E6C6F9ADF0A0E6B6F800E6C6FCB
:10021C00A1DF010E6D6F6E6B83DF5B6A5C6A000E93
:10022C005C5C02E164515B5C0EE2090E6D6F5B502D
:10023C006225E96E5C506321EA6EEECF6EF070DFE2
:10024C005B4A5C2AECD7010E6D6F61C06EF068DF03
:10025C0061510C0A05E10D0E6B6F800E6C6F7ADF2D
:10026C00D00E5B6E070E5C6E040E6D6F4BDF00C024
:10027C005AF0010E5B5E000E5C5A000E5C1802E137
:10028C00000E5B1807E05AB005D05F505A14006E90
:10029C0001E1EAD70D0E6B6F800E6C6F4FDF000E15
:1002AC005C1802E1000E5B18D8B47CD0060E6D6FA2
:1002BC0029DF1B0E00160052D8A472D05D6A5E5066
:1002CC005A14016E01A002D0010E5D6E61510C0A30
:1002DC0066E10A0E6D6F16DF00C05AF00C0E6D6FE2
:1002EC0011DF070E001600C059F000521FE05A042F
:1002FC00036E046A000E045A030E026E03C000F073
:10030C0004C001F0025005E0003600900136FF0FEA
:10031C00FAD759500026000E012267C0E1FF68C0D1
:10032C00E2FF00C0E6FF01C0E6FF15D0030E026E2F
:10033C005AC000F0000E016E025005E0003600902D
:10034C000136FF0FFAD767C0E1FF68C0E2FF00C0BB
:10035C00E6FF01C0E6FF5A50000A02E1010E5A6E98
:10036C005A50100802E2100E5A6E5B6A5C6A000E5C
:10037C005C5C02E15A505B5C12E25B506525696F74
:10038C005C5066216A6F090E6D6FBCDE69C0E1FFBF
:10039C006AC0E2FF00C0E6FF5B4A5C2AE8D702D0E5
:0A03AC00020E5D6E5DC000F012004D
:1003B600050E00016B6F040E6C6FC3DE0A0E6B6FC9
:1003C600800E6C6FCADE5E6A5B505E5C0DE2090EE3
:1003D6006D6F5E505924E96E000E5A20EA6EEECF1C
:1003E6006EF0A1DE5E2AF0D7010E6D6F030E6E6F02
:1003F6009ADEFF0E5E6E050E6D6F87DE00C05FF043
:100406005E065E50000A03E05FB401D0F4D75CC01C
:1004160060F05DC061F0220E6D6F77DE60C0E1FFB7
:1004260061C0E2FF00C0E6FF010E5C24606F000EB3
:100436005D20616F210E6D6F68DE60C0E1FF61C0F7
:08044600E2FF00C0E6FF120016
:0E044E00ACB202D00000FCD759C0ADFF1200C6
:10045C00140E00016D6F56DE030E0016005205E1FE
:0C046C00140E6B6F030E6C6F75DE120037
:0E047800010E00016D6F0F0E6E6F54DE12004C
:10048600016A026A5350025C02E15250015C0BE2BF
:10049600020E0C6E4B0E0D6E0D2EFED70C2EFCD7DB
:0804A600014A022AEFD71200FF
:1004AE000900F5CFE6FF0006FBE10106F9E11200B7
:1004BE008184DBDF2A0E6D6F8D0E6E6F30DE2B0E9C
:1004CE006D6F3E0E6E6F2BDE2D0E6D6F1E0E6E6FF0
:1004DE0026DE2C0E6D6F6E6B22DE150E6D6F400ECE
:1004EE006E6F1DDE110E6D6F3D0E6E6F18DEAFDF7F
:0204FE001200EA
:0E05000092869294929280968094809212003D
:10050E00586A0D0E00016D6F6E6B09DE52C0E1FF71
:10051E0053C0E2FF930EE66E010E5224E16E000E02
:10052E005320E26E200EE66E0C0E616F52C062F02A
:10053E0053C063F0020E646F52C065F053C066F094
:10054E00560E676F000E686F3ADE00C054F0005012
:10055E00000A19E1556A040E555C0AE25550522400
:10056E00D96E000E5320DA6EDE50581A552AF3D784
:10057E0055505224D96E000E5320DA6E5850DE18A4
:0C058E0002E0020E546E54C000F0120097
:10059A0054C004F055C005F052C002F053C003F035
:1005AA0056C000F057C001F0010E565E000E575AB1
:1005BA00005001100FE004C0E9FF05C0EAFF02C0C5
:1005CA00E1FF03C0E2FFEECFE6FF024A032A044A34
:0E05DA00052AE6D752C000F053C001F012000F
:1005E80030C059F0C3DD00C028F030C059F0DADD62
:1005F80000C029F031C059F0B9DD00C02AF031C07F
:1006080059F0D0DD00C02BF032C059F0AFDD00C08A
:100618002CF032C059F0C6DD00C02DF033C059F0BF
:10062800A5DD00C02EF033C059F0BCDD00C02FF0AE
:1006380028C01EF029C01FF02AC020F02BC021F0CE
:100648002CC022F02DC023F02EC024F000C025F0CD
:0206580012008E
:10065A000D0E00016D6F070E6E6F63DD53C0E1FF73
:10066A0054C0E2FF52C0E6FF0C0E616F53C062F045
:10067A0054C063F0010E646F53C065F054C066F055
:10068A00560E676F000E686F9CDD00C055F0005073
:10069A00000A07E1000E571802E1100E561801E190
:0C06AA0002D0020E556E55C000F0120088
:1006B600500E546E556A540E596E000E5A6E020E46
:1006C6005B6E560E5C6E000E5D6E72DE0C0E616F1A
:1006D600540E626F000E636F040E646F540E656FE6
:1006E600000E666F520E676F000E686F6CDD1200AB
:1006F60052C0E9FF53C0EAFFEE520AE052C0E9FFDA
:1007060053C0EAFFEECF59F09FDE524A532AF0D784
:020716001200CF
:1007180052C0E9FF53C0EAFFEE520AE052C0E9FFB7
:1007280053C0EAFFEECF59F08EDE524A532AF0D773
:080738000D0E596E88DE12005F
:10074000490E186E440E196E3A0E1A6E200E1B6E6C
:100750001C6A1D6AFF0E936EF40E526E010E536EEC
:1007600092DE926A020E936E0F0EC16EC00EF26E92
:10077000949C829CC5DE8080A2DE260E526E420EC4
:10078000536E000E546E69DF00C041F0420E526E8F
:10079000000E536EBCDE00C041F0300E526E000EF3
:1007A000536E420E546E000E556E050E566E000EC0
:1007B000576EF3DE4150000A0CE116DF180E526E40
:1007C000000E536E98DF1E0E526E000E536EA4DFA5
:1007D00006D071DF320E526E000E536E54DECDD74E
:0207E000FFD741
:020000040030CA
:0E000000000C1F1EFF8181FF0FC00FE00F409C
:00000001FF
