:1000000000EF03F00000000000EF00F0000000002F
:0A0010000000000000000000F3D71C
:08001C000AAE029E000E120064
:100024000B840BAE1DEF00F0010E036E026A016A31
:0A003400006A0A360232FF0E1200C5
:0E003E00026A016A006A086A036A000E120074
:10004C000B800BAE32EF00F0026A0AAEFF0E026EAE
:0C005C00016E006E0A360232FF0E120028
:0E006800ACB202D00000FCD7C7C0ADFF120042
:100076000C6A0E6A0250D8A454EF00F001C002F0D8
:1000860000C001F0006A0E860250D8A454EF00F0BA
:1000960001C002F0016A0E960E880250D8B466EFCF
:1000A60000F00E50035ED8A4D8A06BEF00F0D890F5
:1000B60002BE70EF00F0003601360236032E5BEF0B
:1000C60000F06BEF00F0010E0C6EB6DF73EF00F080
:1000D600020E0C6EA4DF73EF00F0040E0C6E9BDFB5
:0200E600120006
:1000E8000B820BAE7EEF00F00368026801680068BF
:0800F8000A360232FF0E12006D
:080100000B6A0B86FF0E1200D2
:100108000450000A12E10550000A0FE10650000AE7
:100118000CE10750000A09E1FF0E006EFF0E016EA8
:100128007F0E026EFF0E036EA4D0086A096A07509C
:10013800D8B42FEF01F00350D8B433EF01F00250D8
:1001480006180A6E028E068E0E6A02C008F001C0FA
:100158000CF000C00DF004500D5E0550D8A0053C11
:100168000C5E0650D8A0063C085E086A0C6A0D6A48
:10017800D8A0C6EF00F0D89002320132003208321F
:10018800010E0E6E0750035ED8A0D3EF00F07E0E6E
:100198000E240326D8B037EF01F0D9EF00F07E0E19
:1001A8000E240326D8A03BEF01F0180E0B6E0D3677
:1001B8000C3608360036013602360E360450005E1C
:1001C8000550D8A0053C015E0650D8A0063C025E4A
:1001D80006340E120EA0F4EF00F00D80FFEF00F0D1
:1001E800045000260550D8B0053C01260650D8B06A
:1001F800062802260D900B2EDBEF00F025EF01F00C
:10020800D8900036013602360E360450005E05508E
:10021800D8A0053C015E0650D8A0063C025E063414
:100228000E10010B0D26D8B00C2AD8B4082AD8A471
:1002380025EF01F008320C320D32032AD8B437EF1B
:1002480001F00AAE089E0850026E0C50016E0D5067
:10025800006E3DEF01F0010E4FDF3DEF01F0020EA1
:10026800EADE3DEF01F0040E3BDF3DEF01F0080E42
:04027800D5DE1200BD
:10027C000B6A0350D8B484EF01F002500A6E028E60
:10028C008E0E035E03AE88EF01F0036C080E035C68
:10029C00D8A063EF01F0036E013602C001F0026AD0
:1002AC00080E035CD8A063EF01F0036E0136016AFF
:1002BC000350D8A4D8906DEF01F00350D8B46DEF73
:1002CC0001F0D89002320132032E67EF01F00BBC23
:1002DC0001A07AEF01F0D8A07AEF01F0012AD8B48E
:1002EC00022A02BE97EF01F00AAE9CEF01F0021E4B
:1002FC00011E012AD8B4022A9CEF01F0026A016A9D
:10030C009CEF01F00B800BAEA0EF01F0026A0AAE7D
:10031C00A0EF01F0FF0E026E016E0A360232A0EF62
:10032C0001F0010E0C6E8CDEA2EF01F0000E0C6ED3
:10033C00A2EF01F0FF0E0C6E0150006E0250016E28
:02034C0012009D
:10034E0000C008F00150006E016A026A036A0B6A6F
:10035E000C6A016A026A036A960E036E0A6A00AE9E
:10036E00BFEF01F0081E001E082AD8B4002A0A8E1C
:10037E0000C001F008C000F0086A026A75DE1200C3
:10038E00C5C0E9FFC6C0EAFFEE520BE0C5C0E9FFEB
:10039E00C6C0EAFFEECFC7F060DE0001C54BC62B2C
:0C03AE00EFD700010D0EC76F58DE1200E3
:1003BA00C5C0E9FFC6C0EAFFEE520BE0C5C0E9FFBF
:1003CA00C6C0EAFFEECFC7F04ADE0001C54BC62B16
:0403DA00EFD7120047
:1003DE00680E0001B16F000EB26FC70EB36F000E44
:1003EE00B46FFF0EB56FFF0EB66F000EB76F000E37
:1003FE00B86FFF0EBD6FFF0EBE6F000EBF6F000E0B
:10040E00C06FFF0EB96FFF0EBA6F000EBB6F000EFE
:10041E00BC6FAC8A900EAB6E948E949C9EAA03D049
:08042E00AECF00F0FBD7120075
:10043600956A939A8A9A938C8A9C100ECD6EB8868A
:10044600B06A670EAF6EAC84C7DF820E0C6EDD0E2F
:100456000D6E0D2EFED70C2EFCD700000000990E57
:10046600C56F000EC66F90DF030E0B6E8A0E0C6E04
:10047600550E0D6E0D2EFED70C2EFCD70B2EFAD771
:1004860000000000A50E0001C56F000EC66F7CDFE0
:10049600030E0B6E8A0E0C6E550E0D6E0D2EFED7CC
:1004A6000C2EFCD70B2EFAD7000000009C0E000184
:1004B600C56F000EC66F68DF030E0B6E8A0E0C6EDC
:1004C600550E0D6E0D2EFED70C2EFCD70B2EFAD721
:1004D60000000000760E0001C56F000EC66F54DFE7
:1004E600030E0B6E8A0E0C6E550E0D6E0D2EFED77C
:0E04F6000C2EFCD70B2EFAD7000000001200CF
:100504000900F5CFE6FF0006FBE10106F9E1120060
:100514005C0E0001C56F000EC66F37DF030E0B6E55
:100524008A0E0C6E550E0D6E0D2EFED70C2EFCD7BA
:100534000B2EFAD700000000520E0001C56F000E0A
:10054400C66F39DFC1C0C5F0C2C0C6F034DF660E65
:100554000001C56F000EC66F18DF030E0B6E8A0E06
:100564000C6E550E0D6E0D2EFED70C2EFCD70B2ED9
:10057400FAD700000000C3C0C5F0C4C0C6F01BDF3A
:100584001A0E0001C76F6EDD0B0E0B6E260E0C6E7D
:100594005D0E0D6E0D2EFED70C2EFCD70B2EFAD74A
:0605A4000000000012003F
:1005AA00CF6ACE6A8A8A030E0D6E0D2EFED78A9AFC
:1005BA0081BC01D0FDD7CD8081AC01D0FDD7CD90D3
:1005CA00CFCF01F0006ACE500012000E011200C017
:1005DA00AFF001C0B0F0B6DEAE0E046E470E056E87
:1005EA006B0E066E840E076E8ADD43DE00C0AFF026
:0605FA0001C0B0F0120088
:10060000B3EC03F018DFD1DF800E0001B019006EEB
:10061000800E005C02E10A0EAF5D0CE2010E8C6EF2
:10062000680EC16F000EC26F230EC36F000EC46F41
:1006300071DF4AD0800E006E800E0001B019005CA0
:1006400002E1AF51090815E2800EB019006E800E6C
:10065000005C02E1140EAF5D0CE2020E8C6E150E12
:10066000C16F000EC26F2E0EC36F000EC46F52DF3B
:100670002BD0800E006E800E0001B019005C02E1EC
:10068000AF51130815E2800EB019006E800E005CA9
:1006900002E11E0EAF5D0CE2040E8C6E440EC16FC3
:1006A000000EC26F390EC36F000EC46F33DF0CD063
:1006B000080E8C6E8B0E0001C16F000EC26F800E93
:0C06C000C36F000EC46F26DF9ED7FFD76B
:1007660010EE15F09A0E006E010E016ECC0EF66EAE
:0E077600060EF76E000EF86E82EC02F0120016
:0E06CC002B363339393137393237323639006F
:0B06DA0044697374616E636520310099
:0B06E50044697374616E63652032008D
:0B06F00044697374616E636520330081
:0E06FB002B3633393931373932373236390040
:0A07090041542B434D47533D22009D
:0A07130041542B434D47463D310091
:02071D002200B8
:0E071F002B363339393137393237323639001B
:0A072D0041542B435245473D310073
:0B07370044697374616E636520340038
:0E0742002B36333939313739323732363900F8
:0307500041540011
:0907530041542B435245473F007D
:0A075C0041542B435245473D320043
:020000040030CA
:0E000000000C1F1EFF8181FF0FC00FE00F409C
:00000001FF
